{
  "fileName": "Nerdish.sol",
  "contractName": "Nerdish",
  "source": "// SPDX-License-Identifier: MIT\npragma solidity ^0.6.2;\n\nimport \"@openzeppelin/contracts-ethereum-package/contracts/Initializable.sol\";\nimport \"@openzeppelin/contracts-ethereum-package/contracts/token/ERC721/ERC721.sol\";\nimport \"@openzeppelin/contracts-ethereum-package/contracts/payment/PaymentSplitter.sol\";\nimport \"@openzeppelin/contracts-ethereum-package/contracts/access/Ownable.sol\";\n\ncontract Nerdish is Initializable, ERC721UpgradeSafe, PaymentSplitterUpgradeSafe, OwnableUpgradeSafe{\n\n        //DATOS PARA  INICIAR EL CONSTRUCTOR\n        //payees = [\"0x90F8bf6A479f320ead074411a4B0e7944Ea8c9C1\",\"0xFFcf8FDEE72ac11b5c542428B35EEF5769C409f0\"]\n        //shares_ = [50, 50]\n\n        //almaceno en un array privado las dos direcciones de metamask.\n        address[] splitAddresses;\n\n        uint public constant PRICE = 0.04 ether;\n        uint public constant MAX_SUPPLY = 10000;\n        uint public constant MAX_MINT_AMOUNT = 100;\n        \n        //Buyers with their respective NERD id\n        mapping (address => uint) public buyerToNerd;\n        \n        //Contract administrators\n        mapping (address => bool ) private ownerByAddress;\n        address[] public admins;\n\n        //admin \n        event pullSuccess(string msj);\n\n        //constructor\n        function initialize( string memory _name, string memory _symbol, address[] memory _payees, uint256[] memory _shares) public payable initializer{\n                __ERC721_init(_name, _symbol);   \n                __PaymentSplitter_init(_payees, _shares);\n                __Ownable_init(); \n                admins = _payees;\n                for(uint i = 0; i < admins.length; i++){\n                        ownerByAddress[admins[i]] = true;\n                }\n        }\n\n        modifier onlyAdmins(){\n                require(ownerByAddress[msg.sender] == true);\n                _;\n        }\n        // Minting\n        function mintNerd (uint _amount) public payable {\n                require(_amount != 0 && _amount <= MAX_MINT_AMOUNT, \"Cantidad de NERDS incorrecta\");\n                //require(msg.value >= PRICE.mul(_amount), \"Cantidad de ether incorrecto\");\n                \n                for (uint256 _id = totalSupply() + 1; _id <= _amount; _id ++){\n                        _mint(msg.sender, _id);    \n                        buyerToNerd[msg.sender] = _id;\n                }\n        }\n\n        // Pull Ether from the contracto to an admin's account\n        function pullPayment () public onlyAdmins returns(address){\n                //<emit pullSuccess(\"pull success\");\n                return admins[1];\n                //release(msg.sender);\n        }\n}       \n\n",
  "sourcePath": "contracts/Nerdish.sol",
  "abi": [
    {
      "anonymous": false,
      "inputs": [
        {
          "indexed": true,
          "internalType": "address",
          "name": "owner",
          "type": "address"
        },
        {
          "indexed": true,
          "internalType": "address",
          "name": "approved",
          "type": "address"
        },
        {
          "indexed": true,
          "internalType": "uint256",
          "name": "tokenId",
          "type": "uint256"
        }
      ],
      "name": "Approval",
      "type": "event"
    },
    {
      "anonymous": false,
      "inputs": [
        {
          "indexed": true,
          "internalType": "address",
          "name": "owner",
          "type": "address"
        },
        {
          "indexed": true,
          "internalType": "address",
          "name": "operator",
          "type": "address"
        },
        {
          "indexed": false,
          "internalType": "bool",
          "name": "approved",
          "type": "bool"
        }
      ],
      "name": "ApprovalForAll",
      "type": "event"
    },
    {
      "anonymous": false,
      "inputs": [
        {
          "indexed": true,
          "internalType": "address",
          "name": "previousOwner",
          "type": "address"
        },
        {
          "indexed": true,
          "internalType": "address",
          "name": "newOwner",
          "type": "address"
        }
      ],
      "name": "OwnershipTransferred",
      "type": "event"
    },
    {
      "anonymous": false,
      "inputs": [
        {
          "indexed": false,
          "internalType": "address",
          "name": "account",
          "type": "address"
        },
        {
          "indexed": false,
          "internalType": "uint256",
          "name": "shares",
          "type": "uint256"
        }
      ],
      "name": "PayeeAdded",
      "type": "event"
    },
    {
      "anonymous": false,
      "inputs": [
        {
          "indexed": false,
          "internalType": "address",
          "name": "from",
          "type": "address"
        },
        {
          "indexed": false,
          "internalType": "uint256",
          "name": "amount",
          "type": "uint256"
        }
      ],
      "name": "PaymentReceived",
      "type": "event"
    },
    {
      "anonymous": false,
      "inputs": [
        {
          "indexed": false,
          "internalType": "address",
          "name": "to",
          "type": "address"
        },
        {
          "indexed": false,
          "internalType": "uint256",
          "name": "amount",
          "type": "uint256"
        }
      ],
      "name": "PaymentReleased",
      "type": "event"
    },
    {
      "anonymous": false,
      "inputs": [
        {
          "indexed": true,
          "internalType": "address",
          "name": "from",
          "type": "address"
        },
        {
          "indexed": true,
          "internalType": "address",
          "name": "to",
          "type": "address"
        },
        {
          "indexed": true,
          "internalType": "uint256",
          "name": "tokenId",
          "type": "uint256"
        }
      ],
      "name": "Transfer",
      "type": "event"
    },
    {
      "anonymous": false,
      "inputs": [
        {
          "indexed": false,
          "internalType": "string",
          "name": "msj",
          "type": "string"
        }
      ],
      "name": "pullSuccess",
      "type": "event"
    },
    {
      "inputs": [],
      "name": "MAX_MINT_AMOUNT",
      "outputs": [
        {
          "internalType": "uint256",
          "name": "",
          "type": "uint256"
        }
      ],
      "stateMutability": "view",
      "type": "function"
    },
    {
      "inputs": [],
      "name": "MAX_SUPPLY",
      "outputs": [
        {
          "internalType": "uint256",
          "name": "",
          "type": "uint256"
        }
      ],
      "stateMutability": "view",
      "type": "function"
    },
    {
      "inputs": [],
      "name": "PRICE",
      "outputs": [
        {
          "internalType": "uint256",
          "name": "",
          "type": "uint256"
        }
      ],
      "stateMutability": "view",
      "type": "function"
    },
    {
      "inputs": [
        {
          "internalType": "uint256",
          "name": "",
          "type": "uint256"
        }
      ],
      "name": "admins",
      "outputs": [
        {
          "internalType": "address",
          "name": "",
          "type": "address"
        }
      ],
      "stateMutability": "view",
      "type": "function"
    },
    {
      "inputs": [
        {
          "internalType": "address",
          "name": "to",
          "type": "address"
        },
        {
          "internalType": "uint256",
          "name": "tokenId",
          "type": "uint256"
        }
      ],
      "name": "approve",
      "outputs": [],
      "stateMutability": "nonpayable",
      "type": "function"
    },
    {
      "inputs": [
        {
          "internalType": "address",
          "name": "owner",
          "type": "address"
        }
      ],
      "name": "balanceOf",
      "outputs": [
        {
          "internalType": "uint256",
          "name": "",
          "type": "uint256"
        }
      ],
      "stateMutability": "view",
      "type": "function"
    },
    {
      "inputs": [],
      "name": "baseURI",
      "outputs": [
        {
          "internalType": "string",
          "name": "",
          "type": "string"
        }
      ],
      "stateMutability": "view",
      "type": "function"
    },
    {
      "inputs": [
        {
          "internalType": "address",
          "name": "",
          "type": "address"
        }
      ],
      "name": "buyerToNerd",
      "outputs": [
        {
          "internalType": "uint256",
          "name": "",
          "type": "uint256"
        }
      ],
      "stateMutability": "view",
      "type": "function"
    },
    {
      "inputs": [
        {
          "internalType": "uint256",
          "name": "tokenId",
          "type": "uint256"
        }
      ],
      "name": "getApproved",
      "outputs": [
        {
          "internalType": "address",
          "name": "",
          "type": "address"
        }
      ],
      "stateMutability": "view",
      "type": "function"
    },
    {
      "inputs": [
        {
          "internalType": "string",
          "name": "_name",
          "type": "string"
        },
        {
          "internalType": "string",
          "name": "_symbol",
          "type": "string"
        },
        {
          "internalType": "address[]",
          "name": "_payees",
          "type": "address[]"
        },
        {
          "internalType": "uint256[]",
          "name": "_shares",
          "type": "uint256[]"
        }
      ],
      "name": "initialize",
      "outputs": [],
      "stateMutability": "payable",
      "type": "function"
    },
    {
      "inputs": [
        {
          "internalType": "address",
          "name": "owner",
          "type": "address"
        },
        {
          "internalType": "address",
          "name": "operator",
          "type": "address"
        }
      ],
      "name": "isApprovedForAll",
      "outputs": [
        {
          "internalType": "bool",
          "name": "",
          "type": "bool"
        }
      ],
      "stateMutability": "view",
      "type": "function"
    },
    {
      "inputs": [
        {
          "internalType": "uint256",
          "name": "_amount",
          "type": "uint256"
        }
      ],
      "name": "mintNerd",
      "outputs": [],
      "stateMutability": "payable",
      "type": "function"
    },
    {
      "inputs": [],
      "name": "name",
      "outputs": [
        {
          "internalType": "string",
          "name": "",
          "type": "string"
        }
      ],
      "stateMutability": "view",
      "type": "function"
    },
    {
      "inputs": [],
      "name": "owner",
      "outputs": [
        {
          "internalType": "address",
          "name": "",
          "type": "address"
        }
      ],
      "stateMutability": "view",
      "type": "function"
    },
    {
      "inputs": [
        {
          "internalType": "uint256",
          "name": "tokenId",
          "type": "uint256"
        }
      ],
      "name": "ownerOf",
      "outputs": [
        {
          "internalType": "address",
          "name": "",
          "type": "address"
        }
      ],
      "stateMutability": "view",
      "type": "function"
    },
    {
      "inputs": [
        {
          "internalType": "uint256",
          "name": "index",
          "type": "uint256"
        }
      ],
      "name": "payee",
      "outputs": [
        {
          "internalType": "address",
          "name": "",
          "type": "address"
        }
      ],
      "stateMutability": "view",
      "type": "function"
    },
    {
      "inputs": [],
      "name": "pullPayment",
      "outputs": [
        {
          "internalType": "address",
          "name": "",
          "type": "address"
        }
      ],
      "stateMutability": "nonpayable",
      "type": "function"
    },
    {
      "inputs": [
        {
          "internalType": "address payable",
          "name": "account",
          "type": "address"
        }
      ],
      "name": "release",
      "outputs": [],
      "stateMutability": "nonpayable",
      "type": "function"
    },
    {
      "inputs": [
        {
          "internalType": "address",
          "name": "account",
          "type": "address"
        }
      ],
      "name": "released",
      "outputs": [
        {
          "internalType": "uint256",
          "name": "",
          "type": "uint256"
        }
      ],
      "stateMutability": "view",
      "type": "function"
    },
    {
      "inputs": [],
      "name": "renounceOwnership",
      "outputs": [],
      "stateMutability": "nonpayable",
      "type": "function"
    },
    {
      "inputs": [
        {
          "internalType": "address",
          "name": "from",
          "type": "address"
        },
        {
          "internalType": "address",
          "name": "to",
          "type": "address"
        },
        {
          "internalType": "uint256",
          "name": "tokenId",
          "type": "uint256"
        }
      ],
      "name": "safeTransferFrom",
      "outputs": [],
      "stateMutability": "nonpayable",
      "type": "function"
    },
    {
      "inputs": [
        {
          "internalType": "address",
          "name": "from",
          "type": "address"
        },
        {
          "internalType": "address",
          "name": "to",
          "type": "address"
        },
        {
          "internalType": "uint256",
          "name": "tokenId",
          "type": "uint256"
        },
        {
          "internalType": "bytes",
          "name": "_data",
          "type": "bytes"
        }
      ],
      "name": "safeTransferFrom",
      "outputs": [],
      "stateMutability": "nonpayable",
      "type": "function"
    },
    {
      "inputs": [
        {
          "internalType": "address",
          "name": "operator",
          "type": "address"
        },
        {
          "internalType": "bool",
          "name": "approved",
          "type": "bool"
        }
      ],
      "name": "setApprovalForAll",
      "outputs": [],
      "stateMutability": "nonpayable",
      "type": "function"
    },
    {
      "inputs": [
        {
          "internalType": "address",
          "name": "account",
          "type": "address"
        }
      ],
      "name": "shares",
      "outputs": [
        {
          "internalType": "uint256",
          "name": "",
          "type": "uint256"
        }
      ],
      "stateMutability": "view",
      "type": "function"
    },
    {
      "inputs": [
        {
          "internalType": "bytes4",
          "name": "interfaceId",
          "type": "bytes4"
        }
      ],
      "name": "supportsInterface",
      "outputs": [
        {
          "internalType": "bool",
          "name": "",
          "type": "bool"
        }
      ],
      "stateMutability": "view",
      "type": "function"
    },
    {
      "inputs": [],
      "name": "symbol",
      "outputs": [
        {
          "internalType": "string",
          "name": "",
          "type": "string"
        }
      ],
      "stateMutability": "view",
      "type": "function"
    },
    {
      "inputs": [
        {
          "internalType": "uint256",
          "name": "index",
          "type": "uint256"
        }
      ],
      "name": "tokenByIndex",
      "outputs": [
        {
          "internalType": "uint256",
          "name": "",
          "type": "uint256"
        }
      ],
      "stateMutability": "view",
      "type": "function"
    },
    {
      "inputs": [
        {
          "internalType": "address",
          "name": "owner",
          "type": "address"
        },
        {
          "internalType": "uint256",
          "name": "index",
          "type": "uint256"
        }
      ],
      "name": "tokenOfOwnerByIndex",
      "outputs": [
        {
          "internalType": "uint256",
          "name": "",
          "type": "uint256"
        }
      ],
      "stateMutability": "view",
      "type": "function"
    },
    {
      "inputs": [
        {
          "internalType": "uint256",
          "name": "tokenId",
          "type": "uint256"
        }
      ],
      "name": "tokenURI",
      "outputs": [
        {
          "internalType": "string",
          "name": "",
          "type": "string"
        }
      ],
      "stateMutability": "view",
      "type": "function"
    },
    {
      "inputs": [],
      "name": "totalReleased",
      "outputs": [
        {
          "internalType": "uint256",
          "name": "",
          "type": "uint256"
        }
      ],
      "stateMutability": "view",
      "type": "function"
    },
    {
      "inputs": [],
      "name": "totalShares",
      "outputs": [
        {
          "internalType": "uint256",
          "name": "",
          "type": "uint256"
        }
      ],
      "stateMutability": "view",
      "type": "function"
    },
    {
      "inputs": [],
      "name": "totalSupply",
      "outputs": [
        {
          "internalType": "uint256",
          "name": "",
          "type": "uint256"
        }
      ],
      "stateMutability": "view",
      "type": "function"
    },
    {
      "inputs": [
        {
          "internalType": "address",
          "name": "from",
          "type": "address"
        },
        {
          "internalType": "address",
          "name": "to",
          "type": "address"
        },
        {
          "internalType": "uint256",
          "name": "tokenId",
          "type": "uint256"
        }
      ],
      "name": "transferFrom",
      "outputs": [],
      "stateMutability": "nonpayable",
      "type": "function"
    },
    {
      "inputs": [
        {
          "internalType": "address",
          "name": "newOwner",
          "type": "address"
        }
      ],
      "name": "transferOwnership",
      "outputs": [],
      "stateMutability": "nonpayable",
      "type": "function"
    },
    {
      "stateMutability": "payable",
      "type": "receive"
    }
  ],
  "bytecode": "0x608060405234801561001057600080fd5b5061504e806100206000396000f3fe6080604052600436106101fd5760003560e01c80636c0360eb1161010d578063a22cb465116100a0578063ce7c2ac21161006f578063ce7c2ac214610fb8578063e33b7de31461101d578063e985e9c514611048578063f2fde38b146110cf578063fa9b70181461112057610260565b8063a22cb46514610d54578063b394d4b414610db1578063b88d4fde14610df2578063c87b56dd14610f0457610260565b80638d859f3e116100dc5780638d859f3e14610bf35780638da5cb5b14610c1e57806395d89b4114610c5f5780639852595c14610cef57610260565b80636c0360eb14610a8257806370a0823114610b12578063715018a614610b775780638b83209b14610b8e57610260565b80632ee46a041161019057806342842e0e1161015f57806342842e0e146106ab578063445d9787146107265780634a398667146109a05780634f6ccce7146109ce5780636352211e14610a1d57610260565b80632ee46a04146105815780632f745c59146105e657806332cb6b0c146106555780633a98ef391461068057610260565b806314bfd6d0116101cc57806314bfd6d01461042557806318160ddd1461048a57806319165587146104b557806323b872dd1461050657610260565b806301ffc9a71461026557806306fdde03146102d5578063081812fc14610365578063095ea7b3146103ca57610260565b36610260577f6ef95f06320e7a25a04a175ca677b7052bdd97131872c2192525a629f51be77061022b61114b565b34604051808373ffffffffffffffffffffffffffffffffffffffff1681526020018281526020019250505060405180910390a1005b600080fd5b34801561027157600080fd5b506102bd6004803603602081101561028857600080fd5b8101908080357bffffffffffffffffffffffffffffffffffffffffffffffffffffffff19169060200190929190505050611153565b60405180821515815260200191505060405180910390f35b3480156102e157600080fd5b506102ea6111bb565b6040518080602001828103825283818151815260200191508051906020019080838360005b8381101561032a57808201518184015260208101905061030f565b50505050905090810190601f1680156103575780820380516001836020036101000a031916815260200191505b509250505060405180910390f35b34801561037157600080fd5b5061039e6004803603602081101561038857600080fd5b810190808035906020019092919050505061125d565b604051808273ffffffffffffffffffffffffffffffffffffffff16815260200191505060405180910390f35b3480156103d657600080fd5b50610423600480360360408110156103ed57600080fd5b81019080803573ffffffffffffffffffffffffffffffffffffffff169060200190929190803590602001909291905050506112f8565b005b34801561043157600080fd5b5061045e6004803603602081101561044857600080fd5b810190808035906020019092919050505061143c565b604051808273ffffffffffffffffffffffffffffffffffffffff16815260200191505060405180910390f35b34801561049657600080fd5b5061049f611479565b6040518082815260200191505060405180910390f35b3480156104c157600080fd5b50610504600480360360208110156104d857600080fd5b81019080803573ffffffffffffffffffffffffffffffffffffffff16906020019092919050505061148a565b005b34801561051257600080fd5b5061057f6004803603606081101561052957600080fd5b81019080803573ffffffffffffffffffffffffffffffffffffffff169060200190929190803573ffffffffffffffffffffffffffffffffffffffff169060200190929190803590602001909291905050506117b8565b005b34801561058d57600080fd5b506105d0600480360360208110156105a457600080fd5b81019080803573ffffffffffffffffffffffffffffffffffffffff16906020019092919050505061182e565b6040518082815260200191505060405180910390f35b3480156105f257600080fd5b5061063f6004803603604081101561060957600080fd5b81019080803573ffffffffffffffffffffffffffffffffffffffff16906020019092919080359060200190929190505050611847565b6040518082815260200191505060405180910390f35b34801561066157600080fd5b5061066a6118a2565b6040518082815260200191505060405180910390f35b34801561068c57600080fd5b506106956118a8565b6040518082815260200191505060405180910390f35b3480156106b757600080fd5b50610724600480360360608110156106ce57600080fd5b81019080803573ffffffffffffffffffffffffffffffffffffffff169060200190929190803573ffffffffffffffffffffffffffffffffffffffff169060200190929190803590602001909291905050506118b2565b005b61099e6004803603608081101561073c57600080fd5b810190808035906020019064010000000081111561075957600080fd5b82018360208201111561076b57600080fd5b8035906020019184600183028401116401000000008311171561078d57600080fd5b91908080601f016020809104026020016040519081016040528093929190818152602001838380828437600081840152601f19601f820116905080830192505050505050509192919290803590602001906401000000008111156107f057600080fd5b82018360208201111561080257600080fd5b8035906020019184600183028401116401000000008311171561082457600080fd5b91908080601f016020809104026020016040519081016040528093929190818152602001838380828437600081840152601f19601f8201169050808301925050505050505091929192908035906020019064010000000081111561088757600080fd5b82018360208201111561089957600080fd5b803590602001918460208302840111640100000000831117156108bb57600080fd5b919080806020026020016040519081016040528093929190818152602001838360200280828437600081840152601f19601f8201169050808301925050505050505091929192908035906020019064010000000081111561091b57600080fd5b82018360208201111561092d57600080fd5b8035906020019184602083028401116401000000008311171561094f57600080fd5b919080806020026020016040519081016040528093929190818152602001838360200280828437600081840152601f19601f8201169050808301925050505050505091929192905050506118d2565b005b6109cc600480360360208110156109b657600080fd5b8101908080359060200190929190505050611ab8565b005b3480156109da57600080fd5b50610a07600480360360208110156109f157600080fd5b8101908080359060200190929190505050611bb3565b6040518082815260200191505060405180910390f35b348015610a2957600080fd5b50610a5660048036036020811015610a4057600080fd5b8101908080359060200190929190505050611bd6565b604051808273ffffffffffffffffffffffffffffffffffffffff16815260200191505060405180910390f35b348015610a8e57600080fd5b50610a97611c0d565b6040518080602001828103825283818151815260200191508051906020019080838360005b83811015610ad7578082015181840152602081019050610abc565b50505050905090810190601f168015610b045780820380516001836020036101000a031916815260200191505b509250505060405180910390f35b348015610b1e57600080fd5b50610b6160048036036020811015610b3557600080fd5b81019080803573ffffffffffffffffffffffffffffffffffffffff169060200190929190505050611caf565b6040518082815260200191505060405180910390f35b348015610b8357600080fd5b50610b8c611d84565b005b348015610b9a57600080fd5b50610bc760048036036020811015610bb157600080fd5b8101908080359060200190929190505050611f0f565b604051808273ffffffffffffffffffffffffffffffffffffffff16815260200191505060405180910390f35b348015610bff57600080fd5b50610c08611f50565b6040518082815260200191505060405180910390f35b348015610c2a57600080fd5b50610c33611f5b565b604051808273ffffffffffffffffffffffffffffffffffffffff16815260200191505060405180910390f35b348015610c6b57600080fd5b50610c74611f85565b6040518080602001828103825283818151815260200191508051906020019080838360005b83811015610cb4578082015181840152602081019050610c99565b50505050905090810190601f168015610ce15780820380516001836020036101000a031916815260200191505b509250505060405180910390f35b348015610cfb57600080fd5b50610d3e60048036036020811015610d1257600080fd5b81019080803573ffffffffffffffffffffffffffffffffffffffff169060200190929190505050612027565b6040518082815260200191505060405180910390f35b348015610d6057600080fd5b50610daf60048036036040811015610d7757600080fd5b81019080803573ffffffffffffffffffffffffffffffffffffffff169060200190929190803515159060200190929190505050612070565b005b348015610dbd57600080fd5b50610dc6612226565b604051808273ffffffffffffffffffffffffffffffffffffffff16815260200191505060405180910390f35b348015610dfe57600080fd5b50610f0260048036036080811015610e1557600080fd5b81019080803573ffffffffffffffffffffffffffffffffffffffff169060200190929190803573ffffffffffffffffffffffffffffffffffffffff1690602001909291908035906020019092919080359060200190640100000000811115610e7c57600080fd5b820183602082011115610e8e57600080fd5b80359060200191846001830284011164010000000083111715610eb057600080fd5b91908080601f016020809104026020016040519081016040528093929190818152602001838380828437600081840152601f19601f8201169050808301925050505050505091929192905050506122c5565b005b348015610f1057600080fd5b50610f3d60048036036020811015610f2757600080fd5b810190808035906020019092919050505061233d565b6040518080602001828103825283818151815260200191508051906020019080838360005b83811015610f7d578082015181840152602081019050610f62565b50505050905090810190601f168015610faa5780820380516001836020036101000a031916815260200191505b509250505060405180910390f35b348015610fc457600080fd5b5061100760048036036020811015610fdb57600080fd5b81019080803573ffffffffffffffffffffffffffffffffffffffff169060200190929190505050612626565b6040518082815260200191505060405180910390f35b34801561102957600080fd5b5061103261266f565b6040518082815260200191505060405180910390f35b34801561105457600080fd5b506110b76004803603604081101561106b57600080fd5b81019080803573ffffffffffffffffffffffffffffffffffffffff169060200190929190803573ffffffffffffffffffffffffffffffffffffffff169060200190929190505050612679565b60405180821515815260200191505060405180910390f35b3480156110db57600080fd5b5061111e600480360360208110156110f257600080fd5b81019080803573ffffffffffffffffffffffffffffffffffffffff16906020019092919050505061270d565b005b34801561112c57600080fd5b5061113561291d565b6040518082815260200191505060405180910390f35b600033905090565b600060656000837bffffffffffffffffffffffffffffffffffffffffffffffffffffffff19167bffffffffffffffffffffffffffffffffffffffffffffffffffffffff1916815260200190815260200160002060009054906101000a900460ff169050919050565b6060609c8054600181600116156101000203166002900480601f0160208091040260200160405190810160405280929190818152602001828054600181600116156101000203166002900480156112535780601f1061122857610100808354040283529160200191611253565b820191906000526020600020905b81548152906001019060200180831161123657829003601f168201915b5050505050905090565b600061126882612922565b6112bd576040517f08c379a000000000000000000000000000000000000000000000000000000000815260040180806020018281038252602c815260200180614eb8602c913960400191505060405180910390fd5b609a600083815260200190815260200160002060009054906101000a900473ffffffffffffffffffffffffffffffffffffffff169050919050565b600061130382611bd6565b90508073ffffffffffffffffffffffffffffffffffffffff168373ffffffffffffffffffffffffffffffffffffffff16141561138a576040517f08c379a0000000000000000000000000000000000000000000000000000000008152600401808060200182810382526021815260200180614f9c6021913960400191505060405180910390fd5b8073ffffffffffffffffffffffffffffffffffffffff166113a961114b565b73ffffffffffffffffffffffffffffffffffffffff1614806113d857506113d7816113d261114b565b612679565b5b61142d576040517f08c379a0000000000000000000000000000000000000000000000000000000008152600401808060200182810382526038815260200180614dea6038913960400191505060405180910390fd5b611437838361293f565b505050565b610130818154811061144a57fe5b906000526020600020016000915054906101000a900473ffffffffffffffffffffffffffffffffffffffff1681565b600061148560986129f8565b905090565b600060cb60008373ffffffffffffffffffffffffffffffffffffffff1673ffffffffffffffffffffffffffffffffffffffff1681526020019081526020016000205411611522576040517f08c379a0000000000000000000000000000000000000000000000000000000008152600401808060200182810382526026815260200180614d496026913960400191505060405180910390fd5b600061155060ca543073ffffffffffffffffffffffffffffffffffffffff1631612a0d90919063ffffffff16565b9050600061160b60cc60008573ffffffffffffffffffffffffffffffffffffffff1673ffffffffffffffffffffffffffffffffffffffff168152602001908152602001600020546115fd60c9546115ef60cb60008973ffffffffffffffffffffffffffffffffffffffff1673ffffffffffffffffffffffffffffffffffffffff1681526020019081526020016000205487612a9590919063ffffffff16565b612b1b90919063ffffffff16565b612b6590919063ffffffff16565b90506000811415611667576040517f08c379a000000000000000000000000000000000000000000000000000000000815260040180806020018281038252602b815260200180614dbf602b913960400191505060405180910390fd5b6116b98160cc60008673ffffffffffffffffffffffffffffffffffffffff1673ffffffffffffffffffffffffffffffffffffffff16815260200190815260200160002054612a0d90919063ffffffff16565b60cc60008573ffffffffffffffffffffffffffffffffffffffff1673ffffffffffffffffffffffffffffffffffffffff168152602001908152602001600020819055506117118160ca54612a0d90919063ffffffff16565b60ca819055508273ffffffffffffffffffffffffffffffffffffffff166108fc829081150290604051600060405180830381858888f1935050505015801561175d573d6000803e3d6000fd5b507fdf20fd1e76bc69d672e4814fafb2c449bba3a5369d8359adf9e05e6fde87b0568382604051808373ffffffffffffffffffffffffffffffffffffffff1681526020018281526020019250505060405180910390a1505050565b6117c96117c361114b565b82612baf565b61181e576040517f08c379a0000000000000000000000000000000000000000000000000000000008152600401808060200182810382526031815260200180614fbd6031913960400191505060405180910390fd5b611829838383612ca3565b505050565b61012e6020528060005260406000206000915090505481565b600061189a82609760008673ffffffffffffffffffffffffffffffffffffffff1673ffffffffffffffffffffffffffffffffffffffff168152602001908152602001600020612ee690919063ffffffff16565b905092915050565b61271081565b600060c954905090565b6118cd838383604051806020016040528060008152506122c5565b505050565b600060019054906101000a900460ff16806118f157506118f0612f00565b5b80611907575060008054906101000a900460ff16155b61195c576040517f08c379a000000000000000000000000000000000000000000000000000000000815260040180806020018281038252602e815260200180614ee4602e913960400191505060405180910390fd5b60008060019054906101000a900460ff1615905080156119ac576001600060016101000a81548160ff02191690831515021790555060016000806101000a81548160ff0219169083151502179055505b6119b68585612f17565b6119c08383613031565b6119c8613143565b8261013090805190602001906119df929190614b40565b5060005b61013080549050811015611a8f57600161012f60006101308481548110611a0657fe5b9060005260206000200160009054906101000a900473ffffffffffffffffffffffffffffffffffffffff1673ffffffffffffffffffffffffffffffffffffffff1673ffffffffffffffffffffffffffffffffffffffff16815260200190815260200160002060006101000a81548160ff02191690831515021790555080806001019150506119e3565b508015611ab15760008060016101000a81548160ff0219169083151502179055505b5050505050565b60008114158015611aca575060648111155b611b3c576040517f08c379a000000000000000000000000000000000000000000000000000000000815260040180806020018281038252601c8152602001807f43616e7469646164206465204e4552445320696e636f7272656374610000000081525060200191505060405180910390fd5b60006001611b48611479565b0190505b818111611baf57611b5d3382613251565b8061012e60003373ffffffffffffffffffffffffffffffffffffffff1673ffffffffffffffffffffffffffffffffffffffff168152602001908152602001600020819055508080600101915050611b4c565b5050565b600080611bca83609861344590919063ffffffff16565b50905080915050919050565b6000611c0682604051806060016040528060298152602001614e4c6029913960986134719092919063ffffffff16565b9050919050565b6060609f8054600181600116156101000203166002900480601f016020809104026020016040519081016040528092919081815260200182805460018160011615610100020316600290048015611ca55780601f10611c7a57610100808354040283529160200191611ca5565b820191906000526020600020905b815481529060010190602001808311611c8857829003601f168201915b5050505050905090565b60008073ffffffffffffffffffffffffffffffffffffffff168273ffffffffffffffffffffffffffffffffffffffff161415611d36576040517f08c379a000000000000000000000000000000000000000000000000000000000815260040180806020018281038252602a815260200180614e22602a913960400191505060405180910390fd5b611d7d609760008473ffffffffffffffffffffffffffffffffffffffff1673ffffffffffffffffffffffffffffffffffffffff168152602001908152602001600020613490565b9050919050565b611d8c61114b565b73ffffffffffffffffffffffffffffffffffffffff1660fb60009054906101000a900473ffffffffffffffffffffffffffffffffffffffff1673ffffffffffffffffffffffffffffffffffffffff1614611e4e576040517f08c379a00000000000000000000000000000000000000000000000000000000081526004018080602001828103825260208152602001807f4f776e61626c653a2063616c6c6572206973206e6f7420746865206f776e657281525060200191505060405180910390fd5b600073ffffffffffffffffffffffffffffffffffffffff1660fb60009054906101000a900473ffffffffffffffffffffffffffffffffffffffff1673ffffffffffffffffffffffffffffffffffffffff167f8be0079c531659141344cd1fd0a4f28419497f9722a3daafe3b4186f6b6457e060405160405180910390a3600060fb60006101000a81548173ffffffffffffffffffffffffffffffffffffffff021916908373ffffffffffffffffffffffffffffffffffffffff160217905550565b600060cd8281548110611f1e57fe5b9060005260206000200160009054906101000a900473ffffffffffffffffffffffffffffffffffffffff169050919050565b668e1bc9bf04000081565b600060fb60009054906101000a900473ffffffffffffffffffffffffffffffffffffffff16905090565b6060609d8054600181600116156101000203166002900480601f01602080910402602001604051908101604052809291908181526020018280546001816001161561010002031660029004801561201d5780601f10611ff25761010080835404028352916020019161201d565b820191906000526020600020905b81548152906001019060200180831161200057829003601f168201915b5050505050905090565b600060cc60008373ffffffffffffffffffffffffffffffffffffffff1673ffffffffffffffffffffffffffffffffffffffff168152602001908152602001600020549050919050565b61207861114b565b73ffffffffffffffffffffffffffffffffffffffff168273ffffffffffffffffffffffffffffffffffffffff161415612119576040517f08c379a00000000000000000000000000000000000000000000000000000000081526004018080602001828103825260198152602001807f4552433732313a20617070726f766520746f2063616c6c65720000000000000081525060200191505060405180910390fd5b80609b600061212661114b565b73ffffffffffffffffffffffffffffffffffffffff1673ffffffffffffffffffffffffffffffffffffffff16815260200190815260200160002060008473ffffffffffffffffffffffffffffffffffffffff1673ffffffffffffffffffffffffffffffffffffffff16815260200190815260200160002060006101000a81548160ff0219169083151502179055508173ffffffffffffffffffffffffffffffffffffffff166121d361114b565b73ffffffffffffffffffffffffffffffffffffffff167f17307eab39ab6107e8899845ad3d59bd9653f200f220920489ca2b5937696c318360405180821515815260200191505060405180910390a35050565b60006001151561012f60003373ffffffffffffffffffffffffffffffffffffffff1673ffffffffffffffffffffffffffffffffffffffff16815260200190815260200160002060009054906101000a900460ff1615151461228657600080fd5b61013060018154811061229557fe5b9060005260206000200160009054906101000a900473ffffffffffffffffffffffffffffffffffffffff16905090565b6122d66122d061114b565b83612baf565b61232b576040517f08c379a0000000000000000000000000000000000000000000000000000000008152600401808060200182810382526031815260200180614fbd6031913960400191505060405180910390fd5b612337848484846134a5565b50505050565b606061234882612922565b61239d576040517f08c379a000000000000000000000000000000000000000000000000000000000815260040180806020018281038252602f815260200180614f3b602f913960400191505060405180910390fd5b6060609e60008481526020019081526020016000208054600181600116156101000203166002900480601f0160208091040260200160405190810160405280929190818152602001828054600181600116156101000203166002900480156124465780601f1061241b57610100808354040283529160200191612446565b820191906000526020600020905b81548152906001019060200180831161242957829003601f168201915b505050505090506000609f80546001816001161561010002031660029004905014156124755780915050612621565b60008151111561254e57609f8160405160200180838054600181600116156101000203166002900480156124e05780601f106124be5761010080835404028352918201916124e0565b820191906000526020600020905b8154815290600101906020018083116124cc575b505082805190602001908083835b6020831061251157805182526020820191506020810190506020830392506124ee565b6001836020036101000a03801982511681845116808217855250505050505090500192505050604051602081830303815290604052915050612621565b609f61255984613517565b60405160200180838054600181600116156101000203166002900480156125b75780601f106125955761010080835404028352918201916125b7565b820191906000526020600020905b8154815290600101906020018083116125a3575b505082805190602001908083835b602083106125e857805182526020820191506020810190506020830392506125c5565b6001836020036101000a038019825116818451168082178552505050505050905001925050506040516020818303038152906040529150505b919050565b600060cb60008373ffffffffffffffffffffffffffffffffffffffff1673ffffffffffffffffffffffffffffffffffffffff168152602001908152602001600020549050919050565b600060ca54905090565b6000609b60008473ffffffffffffffffffffffffffffffffffffffff1673ffffffffffffffffffffffffffffffffffffffff16815260200190815260200160002060008373ffffffffffffffffffffffffffffffffffffffff1673ffffffffffffffffffffffffffffffffffffffff16815260200190815260200160002060009054906101000a900460ff16905092915050565b61271561114b565b73ffffffffffffffffffffffffffffffffffffffff1660fb60009054906101000a900473ffffffffffffffffffffffffffffffffffffffff1673ffffffffffffffffffffffffffffffffffffffff16146127d7576040517f08c379a00000000000000000000000000000000000000000000000000000000081526004018080602001828103825260208152602001807f4f776e61626c653a2063616c6c6572206973206e6f7420746865206f776e657281525060200191505060405180910390fd5b600073ffffffffffffffffffffffffffffffffffffffff168173ffffffffffffffffffffffffffffffffffffffff16141561285d576040517f08c379a0000000000000000000000000000000000000000000000000000000008152600401808060200182810382526026815260200180614d236026913960400191505060405180910390fd5b8073ffffffffffffffffffffffffffffffffffffffff1660fb60009054906101000a900473ffffffffffffffffffffffffffffffffffffffff1673ffffffffffffffffffffffffffffffffffffffff167f8be0079c531659141344cd1fd0a4f28419497f9722a3daafe3b4186f6b6457e060405160405180910390a38060fb60006101000a81548173ffffffffffffffffffffffffffffffffffffffff021916908373ffffffffffffffffffffffffffffffffffffffff16021790555050565b606481565b600061293882609861365e90919063ffffffff16565b9050919050565b81609a600083815260200190815260200160002060006101000a81548173ffffffffffffffffffffffffffffffffffffffff021916908373ffffffffffffffffffffffffffffffffffffffff160217905550808273ffffffffffffffffffffffffffffffffffffffff166129b283611bd6565b73ffffffffffffffffffffffffffffffffffffffff167f8c5be1e5ebec7d5bd14f71427d1e84f3dd0314c0f7b2291e5b200ac8c7c3b92560405160405180910390a45050565b6000612a0682600001613678565b9050919050565b600080828401905083811015612a8b576040517f08c379a000000000000000000000000000000000000000000000000000000000815260040180806020018281038252601b8152602001807f536166654d6174683a206164646974696f6e206f766572666c6f77000000000081525060200191505060405180910390fd5b8091505092915050565b600080831415612aa85760009050612b15565b6000828402905082848281612ab957fe5b0414612b10576040517f08c379a0000000000000000000000000000000000000000000000000000000008152600401808060200182810382526021815260200180614e976021913960400191505060405180910390fd5b809150505b92915050565b6000612b5d83836040518060400160405280601a81526020017f536166654d6174683a206469766973696f6e206279207a65726f000000000000815250613689565b905092915050565b6000612ba783836040518060400160405280601e81526020017f536166654d6174683a207375627472616374696f6e206f766572666c6f77000081525061374f565b905092915050565b6000612bba82612922565b612c0f576040517f08c379a000000000000000000000000000000000000000000000000000000000815260040180806020018281038252602c815260200180614d93602c913960400191505060405180910390fd5b6000612c1a83611bd6565b90508073ffffffffffffffffffffffffffffffffffffffff168473ffffffffffffffffffffffffffffffffffffffff161480612c8957508373ffffffffffffffffffffffffffffffffffffffff16612c718461125d565b73ffffffffffffffffffffffffffffffffffffffff16145b80612c9a5750612c998185612679565b5b91505092915050565b8273ffffffffffffffffffffffffffffffffffffffff16612cc382611bd6565b73ffffffffffffffffffffffffffffffffffffffff1614612d2f576040517f08c379a0000000000000000000000000000000000000000000000000000000008152600401808060200182810382526029815260200180614f126029913960400191505060405180910390fd5b600073ffffffffffffffffffffffffffffffffffffffff168273ffffffffffffffffffffffffffffffffffffffff161415612db5576040517f08c379a0000000000000000000000000000000000000000000000000000000008152600401808060200182810382526024815260200180614d6f6024913960400191505060405180910390fd5b612dc083838361380f565b612dcb60008261293f565b612e1c81609760008673ffffffffffffffffffffffffffffffffffffffff1673ffffffffffffffffffffffffffffffffffffffff16815260200190815260200160002061381490919063ffffffff16565b50612e6e81609760008573ffffffffffffffffffffffffffffffffffffffff1673ffffffffffffffffffffffffffffffffffffffff16815260200190815260200160002061382e90919063ffffffff16565b50612e85818360986138489092919063ffffffff16565b50808273ffffffffffffffffffffffffffffffffffffffff168473ffffffffffffffffffffffffffffffffffffffff167fddf252ad1be2c89b69c2b068fc378daa952ba7f163c4a11628f55a4df523b3ef60405160405180910390a4505050565b6000612ef5836000018361387d565b60001c905092915050565b6000803090506000813b9050600081149250505090565b600060019054906101000a900460ff1680612f365750612f35612f00565b5b80612f4c575060008054906101000a900460ff16155b612fa1576040517f08c379a000000000000000000000000000000000000000000000000000000000815260040180806020018281038252602e815260200180614ee4602e913960400191505060405180910390fd5b60008060019054906101000a900460ff161590508015612ff1576001600060016101000a81548160ff02191690831515021790555060016000806101000a81548160ff0219169083151502179055505b612ff9613900565b6130016139fe565b61300b8383613b0c565b801561302c5760008060016101000a81548160ff0219169083151502179055505b505050565b600060019054906101000a900460ff1680613050575061304f612f00565b5b80613066575060008054906101000a900460ff16155b6130bb576040517f08c379a000000000000000000000000000000000000000000000000000000000815260040180806020018281038252602e815260200180614ee4602e913960400191505060405180910390fd5b60008060019054906101000a900460ff16159050801561310b576001600060016101000a81548160ff02191690831515021790555060016000806101000a81548160ff0219169083151502179055505b613113613900565b61311d8383613c6a565b801561313e5760008060016101000a81548160ff0219169083151502179055505b505050565b600060019054906101000a900460ff16806131625750613161612f00565b5b80613178575060008054906101000a900460ff16155b6131cd576040517f08c379a000000000000000000000000000000000000000000000000000000000815260040180806020018281038252602e815260200180614ee4602e913960400191505060405180910390fd5b60008060019054906101000a900460ff16159050801561321d576001600060016101000a81548160ff02191690831515021790555060016000806101000a81548160ff0219169083151502179055505b613225613900565b61322d613e85565b801561324e5760008060016101000a81548160ff0219169083151502179055505b50565b600073ffffffffffffffffffffffffffffffffffffffff168273ffffffffffffffffffffffffffffffffffffffff1614156132f4576040517f08c379a00000000000000000000000000000000000000000000000000000000081526004018080602001828103825260208152602001807f4552433732313a206d696e7420746f20746865207a65726f206164647265737381525060200191505060405180910390fd5b6132fd81612922565b15613370576040517f08c379a000000000000000000000000000000000000000000000000000000000815260040180806020018281038252601c8152602001807f4552433732313a20746f6b656e20616c7265616479206d696e7465640000000081525060200191505060405180910390fd5b61337c6000838361380f565b6133cd81609760008573ffffffffffffffffffffffffffffffffffffffff1673ffffffffffffffffffffffffffffffffffffffff16815260200190815260200160002061382e90919063ffffffff16565b506133e4818360986138489092919063ffffffff16565b50808273ffffffffffffffffffffffffffffffffffffffff16600073ffffffffffffffffffffffffffffffffffffffff167fddf252ad1be2c89b69c2b068fc378daa952ba7f163c4a11628f55a4df523b3ef60405160405180910390a45050565b600080600080613458866000018661402c565b915091508160001c8160001c9350935050509250929050565b6000613484846000018460001b846140c5565b60001c90509392505050565b600061349e826000016141bb565b9050919050565b6134b0848484612ca3565b6134bc848484846141cc565b613511576040517f08c379a0000000000000000000000000000000000000000000000000000000008152600401808060200182810382526032815260200180614cc56032913960400191505060405180910390fd5b50505050565b6060600082141561355f576040518060400160405280600181526020017f30000000000000000000000000000000000000000000000000000000000000008152509050613659565b600082905060005b60008214613589578080600101915050600a828161358157fe5b049150613567565b60608167ffffffffffffffff811180156135a257600080fd5b506040519080825280601f01601f1916602001820160405280156135d55781602001600182028036833780820191505090505b50905060006001830390508593505b6000841461365157600a84816135f657fe5b0660300160f81b8282806001900393508151811061361057fe5b60200101907effffffffffffffffffffffffffffffffffffffffffffffffffffffffffffff1916908160001a905350600a848161364957fe5b0493506135e4565b819450505050505b919050565b6000613670836000018360001b6144c3565b905092915050565b600081600001805490509050919050565b60008083118290613735576040517f08c379a00000000000000000000000000000000000000000000000000000000081526004018080602001828103825283818151815260200191508051906020019080838360005b838110156136fa5780820151818401526020810190506136df565b50505050905090810190601f1680156137275780820380516001836020036101000a031916815260200191505b509250505060405180910390fd5b50600083858161374157fe5b049050809150509392505050565b60008383111582906137fc576040517f08c379a00000000000000000000000000000000000000000000000000000000081526004018080602001828103825283818151815260200191508051906020019080838360005b838110156137c15780820151818401526020810190506137a6565b50505050905090810190601f1680156137ee5780820380516001836020036101000a031916815260200191505b509250505060405180910390fd5b5060008385039050809150509392505050565b505050565b6000613826836000018360001b6144e6565b905092915050565b6000613840836000018360001b6145ce565b905092915050565b6000613874846000018460001b8473ffffffffffffffffffffffffffffffffffffffff1660001b61463e565b90509392505050565b6000818360000180549050116138de576040517f08c379a0000000000000000000000000000000000000000000000000000000008152600401808060200182810382526022815260200180614ca36022913960400191505060405180910390fd5b8260000182815481106138ed57fe5b9060005260206000200154905092915050565b600060019054906101000a900460ff168061391f575061391e612f00565b5b80613935575060008054906101000a900460ff16155b61398a576040517f08c379a000000000000000000000000000000000000000000000000000000000815260040180806020018281038252602e815260200180614ee4602e913960400191505060405180910390fd5b60008060019054906101000a900460ff1615905080156139da576001600060016101000a81548160ff02191690831515021790555060016000806101000a81548160ff0219169083151502179055505b80156139fb5760008060016101000a81548160ff0219169083151502179055505b50565b600060019054906101000a900460ff1680613a1d5750613a1c612f00565b5b80613a33575060008054906101000a900460ff16155b613a88576040517f08c379a000000000000000000000000000000000000000000000000000000000815260040180806020018281038252602e815260200180614ee4602e913960400191505060405180910390fd5b60008060019054906101000a900460ff161590508015613ad8576001600060016101000a81548160ff02191690831515021790555060016000806101000a81548160ff0219169083151502179055505b613ae86301ffc9a760e01b61471a565b8015613b095760008060016101000a81548160ff0219169083151502179055505b50565b600060019054906101000a900460ff1680613b2b5750613b2a612f00565b5b80613b41575060008054906101000a900460ff16155b613b96576040517f08c379a000000000000000000000000000000000000000000000000000000000815260040180806020018281038252602e815260200180614ee4602e913960400191505060405180910390fd5b60008060019054906101000a900460ff161590508015613be6576001600060016101000a81548160ff02191690831515021790555060016000806101000a81548160ff0219169083151502179055505b82609c9080519060200190613bfc929190614bca565b5081609d9080519060200190613c13929190614bca565b50613c246380ac58cd60e01b61471a565b613c34635b5e139f60e01b61471a565b613c4463780e9d6360e01b61471a565b8015613c655760008060016101000a81548160ff0219169083151502179055505b505050565b600060019054906101000a900460ff1680613c895750613c88612f00565b5b80613c9f575060008054906101000a900460ff16155b613cf4576040517f08c379a000000000000000000000000000000000000000000000000000000000815260040180806020018281038252602e815260200180614ee4602e913960400191505060405180910390fd5b60008060019054906101000a900460ff161590508015613d44576001600060016101000a81548160ff02191690831515021790555060016000806101000a81548160ff0219169083151502179055505b8151835114613d9e576040517f08c379a0000000000000000000000000000000000000000000000000000000008152600401808060200182810382526032815260200180614f6a6032913960400191505060405180910390fd5b6000835111613e15576040517f08c379a000000000000000000000000000000000000000000000000000000000815260040180806020018281038252601a8152602001807f5061796d656e7453706c69747465723a206e6f2070617965657300000000000081525060200191505060405180910390fd5b60005b8351811015613e5e57613e51848281518110613e3057fe5b6020026020010151848381518110613e4457fe5b6020026020010151614823565b8080600101915050613e18565b508015613e805760008060016101000a81548160ff0219169083151502179055505b505050565b600060019054906101000a900460ff1680613ea45750613ea3612f00565b5b80613eba575060008054906101000a900460ff16155b613f0f576040517f08c379a000000000000000000000000000000000000000000000000000000000815260040180806020018281038252602e815260200180614ee4602e913960400191505060405180910390fd5b60008060019054906101000a900460ff161590508015613f5f576001600060016101000a81548160ff02191690831515021790555060016000806101000a81548160ff0219169083151502179055505b6000613f6961114b565b90508060fb60006101000a81548173ffffffffffffffffffffffffffffffffffffffff021916908373ffffffffffffffffffffffffffffffffffffffff1602179055508073ffffffffffffffffffffffffffffffffffffffff16600073ffffffffffffffffffffffffffffffffffffffff167f8be0079c531659141344cd1fd0a4f28419497f9722a3daafe3b4186f6b6457e060405160405180910390a35080156140295760008060016101000a81548160ff0219169083151502179055505b50565b6000808284600001805490501161408e576040517f08c379a0000000000000000000000000000000000000000000000000000000008152600401808060200182810382526022815260200180614e756022913960400191505060405180910390fd5b600084600001848154811061409f57fe5b906000526020600020906002020190508060000154816001015492509250509250929050565b6000808460010160008581526020019081526020016000205490506000811415839061418c576040517f08c379a00000000000000000000000000000000000000000000000000000000081526004018080602001828103825283818151815260200191508051906020019080838360005b83811015614151578082015181840152602081019050614136565b50505050905090810190601f16801561417e5780820380516001836020036101000a031916815260200191505b509250505060405180910390fd5b5084600001600182038154811061419f57fe5b9060005260206000209060020201600101549150509392505050565b600081600001805490509050919050565b60006141ed8473ffffffffffffffffffffffffffffffffffffffff16614ad2565b6141fa57600190506144bb565b600060608573ffffffffffffffffffffffffffffffffffffffff1663150b7a0260e01b61422561114b565b898888604051602401808573ffffffffffffffffffffffffffffffffffffffff1681526020018473ffffffffffffffffffffffffffffffffffffffff16815260200183815260200180602001828103825283818151815260200191508051906020019080838360005b838110156142a957808201518184015260208101905061428e565b50505050905090810190601f1680156142d65780820380516001836020036101000a031916815260200191505b5095505050505050604051602081830303815290604052907bffffffffffffffffffffffffffffffffffffffffffffffffffffffff19166020820180517bffffffffffffffffffffffffffffffffffffffffffffffffffffffff83818316178352505050506040518082805190602001908083835b6020831061436e578051825260208201915060208101905060208303925061434b565b6001836020036101000a0380198251168184511680821785525050505050509050019150506000604051808303816000865af19150503d80600081146143d0576040519150601f19603f3d011682016040523d82523d6000602084013e6143d5565b606091505b509150915081614443576000815111156143f25780518082602001fd5b6040517f08c379a0000000000000000000000000000000000000000000000000000000008152600401808060200182810382526032815260200180614cc56032913960400191505060405180910390fd5b600081806020019051602081101561445a57600080fd5b8101908080519060200190929190505050905063150b7a0260e01b7bffffffffffffffffffffffffffffffffffffffffffffffffffffffff1916817bffffffffffffffffffffffffffffffffffffffffffffffffffffffff19161493505050505b949350505050565b600080836001016000848152602001908152602001600020541415905092915050565b600080836001016000848152602001908152602001600020549050600081146145c2576000600182039050600060018660000180549050039050600086600001828154811061453157fe5b906000526020600020015490508087600001848154811061454e57fe5b906000526020600020018190555060018301876001016000838152602001908152602001600020819055508660000180548061458657fe5b600190038181906000526020600020016000905590558660010160008781526020019081526020016000206000905560019450505050506145c8565b60009150505b92915050565b60006145da8383614b1d565b614633578260000182908060018154018082558091505060019003906000526020600020016000909190919091505582600001805490508360010160008481526020019081526020016000208190555060019050614638565b600090505b92915050565b60008084600101600085815260200190815260200160002054905060008114156146e557846000016040518060400160405280868152602001858152509080600181540180825580915050600190039060005260206000209060020201600090919091909150600082015181600001556020820151816001015550508460000180549050856001016000868152602001908152602001600020819055506001915050614713565b828560000160018303815481106146f857fe5b90600052602060002090600202016001018190555060009150505b9392505050565b63ffffffff60e01b817bffffffffffffffffffffffffffffffffffffffffffffffffffffffff191614156147b6576040517f08c379a000000000000000000000000000000000000000000000000000000000815260040180806020018281038252601c8152602001807f4552433136353a20696e76616c696420696e746572666163652069640000000081525060200191505060405180910390fd5b600160656000837bffffffffffffffffffffffffffffffffffffffffffffffffffffffff19167bffffffffffffffffffffffffffffffffffffffffffffffffffffffff1916815260200190815260200160002060006101000a81548160ff02191690831515021790555050565b600073ffffffffffffffffffffffffffffffffffffffff168273ffffffffffffffffffffffffffffffffffffffff1614156148a9576040517f08c379a000000000000000000000000000000000000000000000000000000000815260040180806020018281038252602c815260200180614cf7602c913960400191505060405180910390fd5b6000811161491f576040517f08c379a000000000000000000000000000000000000000000000000000000000815260040180806020018281038252601d8152602001807f5061796d656e7453706c69747465723a2073686172657320617265203000000081525060200191505060405180910390fd5b600060cb60008473ffffffffffffffffffffffffffffffffffffffff1673ffffffffffffffffffffffffffffffffffffffff16815260200190815260200160002054146149b7576040517f08c379a000000000000000000000000000000000000000000000000000000000815260040180806020018281038252602b815260200180614fee602b913960400191505060405180910390fd5b60cd829080600181540180825580915050600190039060005260206000200160009091909190916101000a81548173ffffffffffffffffffffffffffffffffffffffff021916908373ffffffffffffffffffffffffffffffffffffffff1602179055508060cb60008473ffffffffffffffffffffffffffffffffffffffff1673ffffffffffffffffffffffffffffffffffffffff16815260200190815260200160002081905550614a738160c954612a0d90919063ffffffff16565b60c9819055507f40c340f65e17194d14ddddb073d3c9f888e3cb52b5aae0c6c7706b4fbc905fac8282604051808373ffffffffffffffffffffffffffffffffffffffff1681526020018281526020019250505060405180910390a15050565b60008060007fc5d2460186f7233c927e7db2dcc703c0e500b653ca82273b7bfad8045d85a47060001b9050833f9150808214158015614b1457506000801b8214155b92505050919050565b600080836001016000848152602001908152602001600020541415905092915050565b828054828255906000526020600020908101928215614bb9579160200282015b82811115614bb85782518260006101000a81548173ffffffffffffffffffffffffffffffffffffffff021916908373ffffffffffffffffffffffffffffffffffffffff16021790555091602001919060010190614b60565b5b509050614bc69190614c4a565b5090565b828054600181600116156101000203166002900490600052602060002090601f016020900481019282601f10614c0b57805160ff1916838001178555614c39565b82800160010185558215614c39579182015b82811115614c38578251825591602001919060010190614c1d565b5b509050614c469190614c85565b5090565b5b80821115614c8157600081816101000a81549073ffffffffffffffffffffffffffffffffffffffff021916905550600101614c4b565b5090565b5b80821115614c9e576000816000905550600101614c86565b509056fe456e756d657261626c655365743a20696e646578206f7574206f6620626f756e64734552433732313a207472616e7366657220746f206e6f6e20455243373231526563656976657220696d706c656d656e7465725061796d656e7453706c69747465723a206163636f756e7420697320746865207a65726f20616464726573734f776e61626c653a206e6577206f776e657220697320746865207a65726f20616464726573735061796d656e7453706c69747465723a206163636f756e7420686173206e6f207368617265734552433732313a207472616e7366657220746f20746865207a65726f20616464726573734552433732313a206f70657261746f7220717565727920666f72206e6f6e6578697374656e7420746f6b656e5061796d656e7453706c69747465723a206163636f756e74206973206e6f7420647565207061796d656e744552433732313a20617070726f76652063616c6c6572206973206e6f74206f776e6572206e6f7220617070726f76656420666f7220616c6c4552433732313a2062616c616e636520717565727920666f7220746865207a65726f20616464726573734552433732313a206f776e657220717565727920666f72206e6f6e6578697374656e7420746f6b656e456e756d657261626c654d61703a20696e646578206f7574206f6620626f756e6473536166654d6174683a206d756c7469706c69636174696f6e206f766572666c6f774552433732313a20617070726f76656420717565727920666f72206e6f6e6578697374656e7420746f6b656e436f6e747261637420696e7374616e63652068617320616c7265616479206265656e20696e697469616c697a65644552433732313a207472616e73666572206f6620746f6b656e2074686174206973206e6f74206f776e4552433732314d657461646174613a2055524920717565727920666f72206e6f6e6578697374656e7420746f6b656e5061796d656e7453706c69747465723a2070617965657320616e6420736861726573206c656e677468206d69736d617463684552433732313a20617070726f76616c20746f2063757272656e74206f776e65724552433732313a207472616e736665722063616c6c6572206973206e6f74206f776e6572206e6f7220617070726f7665645061796d656e7453706c69747465723a206163636f756e7420616c72656164792068617320736861726573a2646970667358221220d3f6b5920d7cc04ce866aabbb8625605c562184f61b5b644db1d2ebeca9ffbe564736f6c634300060c0033",
  "compiler": {
    "name": "solc",
    "version": "0.6.12+commit.27d51765.Emscripten.clang",
    "optimizer": {
      "enabled": false,
      "runs": 200
    },
    "evmVersion": "petersburg"
  }
}