{
  "fileName": "Nerdish copy.sol",
  "contractName": "NerdsProject",
  "source": "// SPDX-License-Identifier: MIT\npragma solidity ^0.6.2;\n\nimport \"@openzeppelin/contracts-ethereum-package/contracts/Initializable.sol\";\nimport \"@openzeppelin/contracts-ethereum-package/contracts/token/ERC721/ERC721.sol\";\nimport \"@openzeppelin/contracts-ethereum-package/contracts/payment/PaymentSplitter.sol\";\nimport \"@openzeppelin/contracts-ethereum-package/contracts/access/Ownable.sol\";\n\ncontract NerdsProject is Initializable, ERC721UpgradeSafe, PaymentSplitterUpgradeSafe, OwnableUpgradeSafe{\n\n        //payees = [\"0x90F8bf6A479f320ead074411a4B0e7944Ea8c9C1\",\"0xFFcf8FDEE72ac11b5c542428B35EEF5769C409f0\"]\n        //shares_ = [50, 50]\n        //shares_ = [50, 50]\n\n        //almaceno en un array privado las dos direcciones de metamask.\n        address[] splitAddresses;\n        uint public constant PRICE = 0.04 ether;\n        uint public constant MAX_SUPPLY = 10000;\n        uint public constant MAX_MINT_AMOUNT = 100;\n        \n        //Buyers with their respective NERD id\n        mapping (address => uint) public buyerToNerd;\n        \n        //Contract administrators\n        mapping (address => bool ) private ownerByAddress;\n        address[] private admins;\n\n\n        //admin \n        event pullSuccess(string msj);\n        event printAdmins(address[] admins);\n\n        //constructor\n        function initialize( string memory _name, string memory _symbol, \n                             address[] memory _payees, uint256[] memory _shares) \n                             public payable initializer{\n\n                __ERC721_init(_name, _symbol);   \n                __PaymentSplitter_init(_payees, _shares);\n                __Ownable_init(); \n                admins = _payees;\n                for(uint i = 0; i < admins.length; i++){\n                        ownerByAddress[admins[i]] = true;\n                }\n                emit printAdmins(admins);\n        }\n\n        modifier onlyAdmins(){\n                require(ownerByAddress[msg.sender] == true);\n                _;\n        }\n        // Minting\n        function mintNerd (uint _amount) public payable {\n                require(_amount != 0 && _amount <= MAX_MINT_AMOUNT, \"Cantidad de NERDS incorrecta\");\n                //require(msg.value >= PRICE.mul(_amount), \"Cantidad de ether incorrecto\");\n                \n                for (uint _id = totalSupply() + 1; _id <= _amount; _id ++){\n                        _mint(msg.sender, _id);\n                        buyerToNerd[msg.sender] = _id;\n                }\n        }\n\n        // Pull Ether from the contracto to an admin's account\n        function pullPayment () public onlyAdmins {\n                emit pullSuccess(\"pull success\");\n                release(msg.sender);\n        }\n\n}       \n\n",
  "sourcePath": "contracts/Nerdish copy.sol",
  "abi": [
    {
      "anonymous": false,
      "inputs": [
        {
          "indexed": true,
          "internalType": "address",
          "name": "owner",
          "type": "address"
        },
        {
          "indexed": true,
          "internalType": "address",
          "name": "approved",
          "type": "address"
        },
        {
          "indexed": true,
          "internalType": "uint256",
          "name": "tokenId",
          "type": "uint256"
        }
      ],
      "name": "Approval",
      "type": "event"
    },
    {
      "anonymous": false,
      "inputs": [
        {
          "indexed": true,
          "internalType": "address",
          "name": "owner",
          "type": "address"
        },
        {
          "indexed": true,
          "internalType": "address",
          "name": "operator",
          "type": "address"
        },
        {
          "indexed": false,
          "internalType": "bool",
          "name": "approved",
          "type": "bool"
        }
      ],
      "name": "ApprovalForAll",
      "type": "event"
    },
    {
      "anonymous": false,
      "inputs": [
        {
          "indexed": true,
          "internalType": "address",
          "name": "previousOwner",
          "type": "address"
        },
        {
          "indexed": true,
          "internalType": "address",
          "name": "newOwner",
          "type": "address"
        }
      ],
      "name": "OwnershipTransferred",
      "type": "event"
    },
    {
      "anonymous": false,
      "inputs": [
        {
          "indexed": false,
          "internalType": "address",
          "name": "account",
          "type": "address"
        },
        {
          "indexed": false,
          "internalType": "uint256",
          "name": "shares",
          "type": "uint256"
        }
      ],
      "name": "PayeeAdded",
      "type": "event"
    },
    {
      "anonymous": false,
      "inputs": [
        {
          "indexed": false,
          "internalType": "address",
          "name": "from",
          "type": "address"
        },
        {
          "indexed": false,
          "internalType": "uint256",
          "name": "amount",
          "type": "uint256"
        }
      ],
      "name": "PaymentReceived",
      "type": "event"
    },
    {
      "anonymous": false,
      "inputs": [
        {
          "indexed": false,
          "internalType": "address",
          "name": "to",
          "type": "address"
        },
        {
          "indexed": false,
          "internalType": "uint256",
          "name": "amount",
          "type": "uint256"
        }
      ],
      "name": "PaymentReleased",
      "type": "event"
    },
    {
      "anonymous": false,
      "inputs": [
        {
          "indexed": true,
          "internalType": "address",
          "name": "from",
          "type": "address"
        },
        {
          "indexed": true,
          "internalType": "address",
          "name": "to",
          "type": "address"
        },
        {
          "indexed": true,
          "internalType": "uint256",
          "name": "tokenId",
          "type": "uint256"
        }
      ],
      "name": "Transfer",
      "type": "event"
    },
    {
      "anonymous": false,
      "inputs": [
        {
          "indexed": false,
          "internalType": "address[]",
          "name": "admins",
          "type": "address[]"
        }
      ],
      "name": "printAdmins",
      "type": "event"
    },
    {
      "anonymous": false,
      "inputs": [
        {
          "indexed": false,
          "internalType": "string",
          "name": "msj",
          "type": "string"
        }
      ],
      "name": "pullSuccess",
      "type": "event"
    },
    {
      "inputs": [],
      "name": "MAX_MINT_AMOUNT",
      "outputs": [
        {
          "internalType": "uint256",
          "name": "",
          "type": "uint256"
        }
      ],
      "stateMutability": "view",
      "type": "function"
    },
    {
      "inputs": [],
      "name": "MAX_SUPPLY",
      "outputs": [
        {
          "internalType": "uint256",
          "name": "",
          "type": "uint256"
        }
      ],
      "stateMutability": "view",
      "type": "function"
    },
    {
      "inputs": [],
      "name": "PRICE",
      "outputs": [
        {
          "internalType": "uint256",
          "name": "",
          "type": "uint256"
        }
      ],
      "stateMutability": "view",
      "type": "function"
    },
    {
      "inputs": [
        {
          "internalType": "address",
          "name": "to",
          "type": "address"
        },
        {
          "internalType": "uint256",
          "name": "tokenId",
          "type": "uint256"
        }
      ],
      "name": "approve",
      "outputs": [],
      "stateMutability": "nonpayable",
      "type": "function"
    },
    {
      "inputs": [
        {
          "internalType": "address",
          "name": "owner",
          "type": "address"
        }
      ],
      "name": "balanceOf",
      "outputs": [
        {
          "internalType": "uint256",
          "name": "",
          "type": "uint256"
        }
      ],
      "stateMutability": "view",
      "type": "function"
    },
    {
      "inputs": [],
      "name": "baseURI",
      "outputs": [
        {
          "internalType": "string",
          "name": "",
          "type": "string"
        }
      ],
      "stateMutability": "view",
      "type": "function"
    },
    {
      "inputs": [
        {
          "internalType": "address",
          "name": "",
          "type": "address"
        }
      ],
      "name": "buyerToNerd",
      "outputs": [
        {
          "internalType": "uint256",
          "name": "",
          "type": "uint256"
        }
      ],
      "stateMutability": "view",
      "type": "function"
    },
    {
      "inputs": [
        {
          "internalType": "uint256",
          "name": "tokenId",
          "type": "uint256"
        }
      ],
      "name": "getApproved",
      "outputs": [
        {
          "internalType": "address",
          "name": "",
          "type": "address"
        }
      ],
      "stateMutability": "view",
      "type": "function"
    },
    {
      "inputs": [
        {
          "internalType": "string",
          "name": "_name",
          "type": "string"
        },
        {
          "internalType": "string",
          "name": "_symbol",
          "type": "string"
        },
        {
          "internalType": "address[]",
          "name": "_payees",
          "type": "address[]"
        },
        {
          "internalType": "uint256[]",
          "name": "_shares",
          "type": "uint256[]"
        }
      ],
      "name": "initialize",
      "outputs": [],
      "stateMutability": "payable",
      "type": "function"
    },
    {
      "inputs": [
        {
          "internalType": "address",
          "name": "owner",
          "type": "address"
        },
        {
          "internalType": "address",
          "name": "operator",
          "type": "address"
        }
      ],
      "name": "isApprovedForAll",
      "outputs": [
        {
          "internalType": "bool",
          "name": "",
          "type": "bool"
        }
      ],
      "stateMutability": "view",
      "type": "function"
    },
    {
      "inputs": [
        {
          "internalType": "uint256",
          "name": "_amount",
          "type": "uint256"
        }
      ],
      "name": "mintNerd",
      "outputs": [],
      "stateMutability": "payable",
      "type": "function"
    },
    {
      "inputs": [],
      "name": "name",
      "outputs": [
        {
          "internalType": "string",
          "name": "",
          "type": "string"
        }
      ],
      "stateMutability": "view",
      "type": "function"
    },
    {
      "inputs": [],
      "name": "owner",
      "outputs": [
        {
          "internalType": "address",
          "name": "",
          "type": "address"
        }
      ],
      "stateMutability": "view",
      "type": "function"
    },
    {
      "inputs": [
        {
          "internalType": "uint256",
          "name": "tokenId",
          "type": "uint256"
        }
      ],
      "name": "ownerOf",
      "outputs": [
        {
          "internalType": "address",
          "name": "",
          "type": "address"
        }
      ],
      "stateMutability": "view",
      "type": "function"
    },
    {
      "inputs": [
        {
          "internalType": "uint256",
          "name": "index",
          "type": "uint256"
        }
      ],
      "name": "payee",
      "outputs": [
        {
          "internalType": "address",
          "name": "",
          "type": "address"
        }
      ],
      "stateMutability": "view",
      "type": "function"
    },
    {
      "inputs": [],
      "name": "pullPayment",
      "outputs": [],
      "stateMutability": "nonpayable",
      "type": "function"
    },
    {
      "inputs": [
        {
          "internalType": "address payable",
          "name": "account",
          "type": "address"
        }
      ],
      "name": "release",
      "outputs": [],
      "stateMutability": "nonpayable",
      "type": "function"
    },
    {
      "inputs": [
        {
          "internalType": "address",
          "name": "account",
          "type": "address"
        }
      ],
      "name": "released",
      "outputs": [
        {
          "internalType": "uint256",
          "name": "",
          "type": "uint256"
        }
      ],
      "stateMutability": "view",
      "type": "function"
    },
    {
      "inputs": [],
      "name": "renounceOwnership",
      "outputs": [],
      "stateMutability": "nonpayable",
      "type": "function"
    },
    {
      "inputs": [
        {
          "internalType": "address",
          "name": "from",
          "type": "address"
        },
        {
          "internalType": "address",
          "name": "to",
          "type": "address"
        },
        {
          "internalType": "uint256",
          "name": "tokenId",
          "type": "uint256"
        }
      ],
      "name": "safeTransferFrom",
      "outputs": [],
      "stateMutability": "nonpayable",
      "type": "function"
    },
    {
      "inputs": [
        {
          "internalType": "address",
          "name": "from",
          "type": "address"
        },
        {
          "internalType": "address",
          "name": "to",
          "type": "address"
        },
        {
          "internalType": "uint256",
          "name": "tokenId",
          "type": "uint256"
        },
        {
          "internalType": "bytes",
          "name": "_data",
          "type": "bytes"
        }
      ],
      "name": "safeTransferFrom",
      "outputs": [],
      "stateMutability": "nonpayable",
      "type": "function"
    },
    {
      "inputs": [
        {
          "internalType": "address",
          "name": "operator",
          "type": "address"
        },
        {
          "internalType": "bool",
          "name": "approved",
          "type": "bool"
        }
      ],
      "name": "setApprovalForAll",
      "outputs": [],
      "stateMutability": "nonpayable",
      "type": "function"
    },
    {
      "inputs": [
        {
          "internalType": "address",
          "name": "account",
          "type": "address"
        }
      ],
      "name": "shares",
      "outputs": [
        {
          "internalType": "uint256",
          "name": "",
          "type": "uint256"
        }
      ],
      "stateMutability": "view",
      "type": "function"
    },
    {
      "inputs": [
        {
          "internalType": "bytes4",
          "name": "interfaceId",
          "type": "bytes4"
        }
      ],
      "name": "supportsInterface",
      "outputs": [
        {
          "internalType": "bool",
          "name": "",
          "type": "bool"
        }
      ],
      "stateMutability": "view",
      "type": "function"
    },
    {
      "inputs": [],
      "name": "symbol",
      "outputs": [
        {
          "internalType": "string",
          "name": "",
          "type": "string"
        }
      ],
      "stateMutability": "view",
      "type": "function"
    },
    {
      "inputs": [
        {
          "internalType": "uint256",
          "name": "index",
          "type": "uint256"
        }
      ],
      "name": "tokenByIndex",
      "outputs": [
        {
          "internalType": "uint256",
          "name": "",
          "type": "uint256"
        }
      ],
      "stateMutability": "view",
      "type": "function"
    },
    {
      "inputs": [
        {
          "internalType": "address",
          "name": "owner",
          "type": "address"
        },
        {
          "internalType": "uint256",
          "name": "index",
          "type": "uint256"
        }
      ],
      "name": "tokenOfOwnerByIndex",
      "outputs": [
        {
          "internalType": "uint256",
          "name": "",
          "type": "uint256"
        }
      ],
      "stateMutability": "view",
      "type": "function"
    },
    {
      "inputs": [
        {
          "internalType": "uint256",
          "name": "tokenId",
          "type": "uint256"
        }
      ],
      "name": "tokenURI",
      "outputs": [
        {
          "internalType": "string",
          "name": "",
          "type": "string"
        }
      ],
      "stateMutability": "view",
      "type": "function"
    },
    {
      "inputs": [],
      "name": "totalReleased",
      "outputs": [
        {
          "internalType": "uint256",
          "name": "",
          "type": "uint256"
        }
      ],
      "stateMutability": "view",
      "type": "function"
    },
    {
      "inputs": [],
      "name": "totalShares",
      "outputs": [
        {
          "internalType": "uint256",
          "name": "",
          "type": "uint256"
        }
      ],
      "stateMutability": "view",
      "type": "function"
    },
    {
      "inputs": [],
      "name": "totalSupply",
      "outputs": [
        {
          "internalType": "uint256",
          "name": "",
          "type": "uint256"
        }
      ],
      "stateMutability": "view",
      "type": "function"
    },
    {
      "inputs": [
        {
          "internalType": "address",
          "name": "from",
          "type": "address"
        },
        {
          "internalType": "address",
          "name": "to",
          "type": "address"
        },
        {
          "internalType": "uint256",
          "name": "tokenId",
          "type": "uint256"
        }
      ],
      "name": "transferFrom",
      "outputs": [],
      "stateMutability": "nonpayable",
      "type": "function"
    },
    {
      "inputs": [
        {
          "internalType": "address",
          "name": "newOwner",
          "type": "address"
        }
      ],
      "name": "transferOwnership",
      "outputs": [],
      "stateMutability": "nonpayable",
      "type": "function"
    },
    {
      "stateMutability": "payable",
      "type": "receive"
    }
  ],
  "bytecode": "0x608060405234801561001057600080fd5b50615056806100206000396000f3fe6080604052600436106101f25760003560e01c80636c0360eb1161010d578063a22cb465116100a0578063ce7c2ac21161006f578063ce7c2ac214610f1e578063e33b7de314610f83578063e985e9c514610fae578063f2fde38b14611035578063fa9b70181461108657610255565b8063a22cb46514610ce4578063b394d4b414610d41578063b88d4fde14610d58578063c87b56dd14610e6a57610255565b80638d859f3e116100dc5780638d859f3e14610b835780638da5cb5b14610bae57806395d89b4114610bef5780639852595c14610c7f57610255565b80636c0360eb14610a1257806370a0823114610aa2578063715018a614610b075780638b83209b14610b1e57610255565b80632f745c5911610185578063445d978711610154578063445d9787146106b65780634a398667146109305780634f6ccce71461095e5780636352211e146109ad57610255565b80632f745c591461057657806332cb6b0c146105e55780633a98ef391461061057806342842e0e1461063b57610255565b806318160ddd116101c157806318160ddd1461041a578063191655871461044557806323b872dd146104965780632ee46a041461051157610255565b806301ffc9a71461025a57806306fdde03146102ca578063081812fc1461035a578063095ea7b3146103bf57610255565b36610255577f6ef95f06320e7a25a04a175ca677b7052bdd97131872c2192525a629f51be7706102206110b1565b34604051808373ffffffffffffffffffffffffffffffffffffffff1681526020018281526020019250505060405180910390a1005b600080fd5b34801561026657600080fd5b506102b26004803603602081101561027d57600080fd5b8101908080357bffffffffffffffffffffffffffffffffffffffffffffffffffffffff191690602001909291905050506110b9565b60405180821515815260200191505060405180910390f35b3480156102d657600080fd5b506102df611121565b6040518080602001828103825283818151815260200191508051906020019080838360005b8381101561031f578082015181840152602081019050610304565b50505050905090810190601f16801561034c5780820380516001836020036101000a031916815260200191505b509250505060405180910390f35b34801561036657600080fd5b506103936004803603602081101561037d57600080fd5b81019080803590602001909291905050506111c3565b604051808273ffffffffffffffffffffffffffffffffffffffff16815260200191505060405180910390f35b3480156103cb57600080fd5b50610418600480360360408110156103e257600080fd5b81019080803573ffffffffffffffffffffffffffffffffffffffff1690602001909291908035906020019092919050505061125e565b005b34801561042657600080fd5b5061042f6113a2565b6040518082815260200191505060405180910390f35b34801561045157600080fd5b506104946004803603602081101561046857600080fd5b81019080803573ffffffffffffffffffffffffffffffffffffffff1690602001909291905050506113b3565b005b3480156104a257600080fd5b5061050f600480360360608110156104b957600080fd5b81019080803573ffffffffffffffffffffffffffffffffffffffff169060200190929190803573ffffffffffffffffffffffffffffffffffffffff169060200190929190803590602001909291905050506116e1565b005b34801561051d57600080fd5b506105606004803603602081101561053457600080fd5b81019080803573ffffffffffffffffffffffffffffffffffffffff169060200190929190505050611757565b6040518082815260200191505060405180910390f35b34801561058257600080fd5b506105cf6004803603604081101561059957600080fd5b81019080803573ffffffffffffffffffffffffffffffffffffffff16906020019092919080359060200190929190505050611770565b6040518082815260200191505060405180910390f35b3480156105f157600080fd5b506105fa6117cb565b6040518082815260200191505060405180910390f35b34801561061c57600080fd5b506106256117d1565b6040518082815260200191505060405180910390f35b34801561064757600080fd5b506106b46004803603606081101561065e57600080fd5b81019080803573ffffffffffffffffffffffffffffffffffffffff169060200190929190803573ffffffffffffffffffffffffffffffffffffffff169060200190929190803590602001909291905050506117db565b005b61092e600480360360808110156106cc57600080fd5b81019080803590602001906401000000008111156106e957600080fd5b8201836020820111156106fb57600080fd5b8035906020019184600183028401116401000000008311171561071d57600080fd5b91908080601f016020809104026020016040519081016040528093929190818152602001838380828437600081840152601f19601f8201169050808301925050505050505091929192908035906020019064010000000081111561078057600080fd5b82018360208201111561079257600080fd5b803590602001918460018302840111640100000000831117156107b457600080fd5b91908080601f016020809104026020016040519081016040528093929190818152602001838380828437600081840152601f19601f8201169050808301925050505050505091929192908035906020019064010000000081111561081757600080fd5b82018360208201111561082957600080fd5b8035906020019184602083028401116401000000008311171561084b57600080fd5b919080806020026020016040519081016040528093929190818152602001838360200280828437600081840152601f19601f820116905080830192505050505050509192919290803590602001906401000000008111156108ab57600080fd5b8201836020820111156108bd57600080fd5b803590602001918460208302840111640100000000831117156108df57600080fd5b919080806020026020016040519081016040528093929190818152602001838360200280828437600081840152601f19601f8201169050808301925050505050505091929192905050506117fb565b005b61095c6004803603602081101561094657600080fd5b8101908080359060200190929190505050611a8e565b005b34801561096a57600080fd5b506109976004803603602081101561098157600080fd5b8101908080359060200190929190505050611b89565b6040518082815260200191505060405180910390f35b3480156109b957600080fd5b506109e6600480360360208110156109d057600080fd5b8101908080359060200190929190505050611bac565b604051808273ffffffffffffffffffffffffffffffffffffffff16815260200191505060405180910390f35b348015610a1e57600080fd5b50610a27611be3565b6040518080602001828103825283818151815260200191508051906020019080838360005b83811015610a67578082015181840152602081019050610a4c565b50505050905090810190601f168015610a945780820380516001836020036101000a031916815260200191505b509250505060405180910390f35b348015610aae57600080fd5b50610af160048036036020811015610ac557600080fd5b81019080803573ffffffffffffffffffffffffffffffffffffffff169060200190929190505050611c85565b6040518082815260200191505060405180910390f35b348015610b1357600080fd5b50610b1c611d5a565b005b348015610b2a57600080fd5b50610b5760048036036020811015610b4157600080fd5b8101908080359060200190929190505050611ee5565b604051808273ffffffffffffffffffffffffffffffffffffffff16815260200191505060405180910390f35b348015610b8f57600080fd5b50610b98611f26565b6040518082815260200191505060405180910390f35b348015610bba57600080fd5b50610bc3611f31565b604051808273ffffffffffffffffffffffffffffffffffffffff16815260200191505060405180910390f35b348015610bfb57600080fd5b50610c04611f5b565b6040518080602001828103825283818151815260200191508051906020019080838360005b83811015610c44578082015181840152602081019050610c29565b50505050905090810190601f168015610c715780820380516001836020036101000a031916815260200191505b509250505060405180910390f35b348015610c8b57600080fd5b50610cce60048036036020811015610ca257600080fd5b81019080803573ffffffffffffffffffffffffffffffffffffffff169060200190929190505050611ffd565b6040518082815260200191505060405180910390f35b348015610cf057600080fd5b50610d3f60048036036040811015610d0757600080fd5b81019080803573ffffffffffffffffffffffffffffffffffffffff169060200190929190803515159060200190929190505050612046565b005b348015610d4d57600080fd5b50610d566121fc565b005b348015610d6457600080fd5b50610e6860048036036080811015610d7b57600080fd5b81019080803573ffffffffffffffffffffffffffffffffffffffff169060200190929190803573ffffffffffffffffffffffffffffffffffffffff1690602001909291908035906020019092919080359060200190640100000000811115610de257600080fd5b820183602082011115610df457600080fd5b80359060200191846001830284011164010000000083111715610e1657600080fd5b91908080601f016020809104026020016040519081016040528093929190818152602001838380828437600081840152601f19601f8201169050808301925050505050505091929192905050506122cd565b005b348015610e7657600080fd5b50610ea360048036036020811015610e8d57600080fd5b8101908080359060200190929190505050612345565b6040518080602001828103825283818151815260200191508051906020019080838360005b83811015610ee3578082015181840152602081019050610ec8565b50505050905090810190601f168015610f105780820380516001836020036101000a031916815260200191505b509250505060405180910390f35b348015610f2a57600080fd5b50610f6d60048036036020811015610f4157600080fd5b81019080803573ffffffffffffffffffffffffffffffffffffffff16906020019092919050505061262e565b6040518082815260200191505060405180910390f35b348015610f8f57600080fd5b50610f98612677565b6040518082815260200191505060405180910390f35b348015610fba57600080fd5b5061101d60048036036040811015610fd157600080fd5b81019080803573ffffffffffffffffffffffffffffffffffffffff169060200190929190803573ffffffffffffffffffffffffffffffffffffffff169060200190929190505050612681565b60405180821515815260200191505060405180910390f35b34801561104157600080fd5b506110846004803603602081101561105857600080fd5b81019080803573ffffffffffffffffffffffffffffffffffffffff169060200190929190505050612715565b005b34801561109257600080fd5b5061109b612925565b6040518082815260200191505060405180910390f35b600033905090565b600060656000837bffffffffffffffffffffffffffffffffffffffffffffffffffffffff19167bffffffffffffffffffffffffffffffffffffffffffffffffffffffff1916815260200190815260200160002060009054906101000a900460ff169050919050565b6060609c8054600181600116156101000203166002900480601f0160208091040260200160405190810160405280929190818152602001828054600181600116156101000203166002900480156111b95780601f1061118e576101008083540402835291602001916111b9565b820191906000526020600020905b81548152906001019060200180831161119c57829003601f168201915b5050505050905090565b60006111ce8261292a565b611223576040517f08c379a000000000000000000000000000000000000000000000000000000000815260040180806020018281038252602c815260200180614ec0602c913960400191505060405180910390fd5b609a600083815260200190815260200160002060009054906101000a900473ffffffffffffffffffffffffffffffffffffffff169050919050565b600061126982611bac565b90508073ffffffffffffffffffffffffffffffffffffffff168373ffffffffffffffffffffffffffffffffffffffff1614156112f0576040517f08c379a0000000000000000000000000000000000000000000000000000000008152600401808060200182810382526021815260200180614fa46021913960400191505060405180910390fd5b8073ffffffffffffffffffffffffffffffffffffffff1661130f6110b1565b73ffffffffffffffffffffffffffffffffffffffff16148061133e575061133d816113386110b1565b612681565b5b611393576040517f08c379a0000000000000000000000000000000000000000000000000000000008152600401808060200182810382526038815260200180614df26038913960400191505060405180910390fd5b61139d8383612947565b505050565b60006113ae6098612a00565b905090565b600060cb60008373ffffffffffffffffffffffffffffffffffffffff1673ffffffffffffffffffffffffffffffffffffffff168152602001908152602001600020541161144b576040517f08c379a0000000000000000000000000000000000000000000000000000000008152600401808060200182810382526026815260200180614d516026913960400191505060405180910390fd5b600061147960ca543073ffffffffffffffffffffffffffffffffffffffff1631612a1590919063ffffffff16565b9050600061153460cc60008573ffffffffffffffffffffffffffffffffffffffff1673ffffffffffffffffffffffffffffffffffffffff1681526020019081526020016000205461152660c95461151860cb60008973ffffffffffffffffffffffffffffffffffffffff1673ffffffffffffffffffffffffffffffffffffffff1681526020019081526020016000205487612a9d90919063ffffffff16565b612b2390919063ffffffff16565b612b6d90919063ffffffff16565b90506000811415611590576040517f08c379a000000000000000000000000000000000000000000000000000000000815260040180806020018281038252602b815260200180614dc7602b913960400191505060405180910390fd5b6115e28160cc60008673ffffffffffffffffffffffffffffffffffffffff1673ffffffffffffffffffffffffffffffffffffffff16815260200190815260200160002054612a1590919063ffffffff16565b60cc60008573ffffffffffffffffffffffffffffffffffffffff1673ffffffffffffffffffffffffffffffffffffffff1681526020019081526020016000208190555061163a8160ca54612a1590919063ffffffff16565b60ca819055508273ffffffffffffffffffffffffffffffffffffffff166108fc829081150290604051600060405180830381858888f19350505050158015611686573d6000803e3d6000fd5b507fdf20fd1e76bc69d672e4814fafb2c449bba3a5369d8359adf9e05e6fde87b0568382604051808373ffffffffffffffffffffffffffffffffffffffff1681526020018281526020019250505060405180910390a1505050565b6116f26116ec6110b1565b82612bb7565b611747576040517f08c379a0000000000000000000000000000000000000000000000000000000008152600401808060200182810382526031815260200180614fc56031913960400191505060405180910390fd5b611752838383612cab565b505050565b61012e6020528060005260406000206000915090505481565b60006117c382609760008673ffffffffffffffffffffffffffffffffffffffff1673ffffffffffffffffffffffffffffffffffffffff168152602001908152602001600020612eee90919063ffffffff16565b905092915050565b61271081565b600060c954905090565b6117f6838383604051806020016040528060008152506122cd565b505050565b600060019054906101000a900460ff168061181a5750611819612f08565b5b80611830575060008054906101000a900460ff16155b611885576040517f08c379a000000000000000000000000000000000000000000000000000000000815260040180806020018281038252602e815260200180614eec602e913960400191505060405180910390fd5b60008060019054906101000a900460ff1615905080156118d5576001600060016101000a81548160ff02191690831515021790555060016000806101000a81548160ff0219169083151502179055505b6118df8585612f1f565b6118e98383613039565b6118f161314b565b826101309080519060200190611908929190614b48565b5060005b610130805490508110156119b857600161012f6000610130848154811061192f57fe5b9060005260206000200160009054906101000a900473ffffffffffffffffffffffffffffffffffffffff1673ffffffffffffffffffffffffffffffffffffffff1673ffffffffffffffffffffffffffffffffffffffff16815260200190815260200160002060006101000a81548160ff021916908315150217905550808060010191505061190c565b507f71a2cd25658f286a05c08b42386a818e36fe6ce06949c643a8f979cd5510159c61013060405180806020018281038252838181548152602001915080548015611a5857602002820191906000526020600020905b8160009054906101000a900473ffffffffffffffffffffffffffffffffffffffff1673ffffffffffffffffffffffffffffffffffffffff1681526020019060010190808311611a0e575b50509250505060405180910390a18015611a875760008060016101000a81548160ff0219169083151502179055505b5050505050565b60008114158015611aa0575060648111155b611b12576040517f08c379a000000000000000000000000000000000000000000000000000000000815260040180806020018281038252601c8152602001807f43616e7469646164206465204e4552445320696e636f7272656374610000000081525060200191505060405180910390fd5b60006001611b1e6113a2565b0190505b818111611b8557611b333382613259565b8061012e60003373ffffffffffffffffffffffffffffffffffffffff1673ffffffffffffffffffffffffffffffffffffffff168152602001908152602001600020819055508080600101915050611b22565b5050565b600080611ba083609861344d90919063ffffffff16565b50905080915050919050565b6000611bdc82604051806060016040528060298152602001614e546029913960986134799092919063ffffffff16565b9050919050565b6060609f8054600181600116156101000203166002900480601f016020809104026020016040519081016040528092919081815260200182805460018160011615610100020316600290048015611c7b5780601f10611c5057610100808354040283529160200191611c7b565b820191906000526020600020905b815481529060010190602001808311611c5e57829003601f168201915b5050505050905090565b60008073ffffffffffffffffffffffffffffffffffffffff168273ffffffffffffffffffffffffffffffffffffffff161415611d0c576040517f08c379a000000000000000000000000000000000000000000000000000000000815260040180806020018281038252602a815260200180614e2a602a913960400191505060405180910390fd5b611d53609760008473ffffffffffffffffffffffffffffffffffffffff1673ffffffffffffffffffffffffffffffffffffffff168152602001908152602001600020613498565b9050919050565b611d626110b1565b73ffffffffffffffffffffffffffffffffffffffff1660fb60009054906101000a900473ffffffffffffffffffffffffffffffffffffffff1673ffffffffffffffffffffffffffffffffffffffff1614611e24576040517f08c379a00000000000000000000000000000000000000000000000000000000081526004018080602001828103825260208152602001807f4f776e61626c653a2063616c6c6572206973206e6f7420746865206f776e657281525060200191505060405180910390fd5b600073ffffffffffffffffffffffffffffffffffffffff1660fb60009054906101000a900473ffffffffffffffffffffffffffffffffffffffff1673ffffffffffffffffffffffffffffffffffffffff167f8be0079c531659141344cd1fd0a4f28419497f9722a3daafe3b4186f6b6457e060405160405180910390a3600060fb60006101000a81548173ffffffffffffffffffffffffffffffffffffffff021916908373ffffffffffffffffffffffffffffffffffffffff160217905550565b600060cd8281548110611ef457fe5b9060005260206000200160009054906101000a900473ffffffffffffffffffffffffffffffffffffffff169050919050565b668e1bc9bf04000081565b600060fb60009054906101000a900473ffffffffffffffffffffffffffffffffffffffff16905090565b6060609d8054600181600116156101000203166002900480601f016020809104026020016040519081016040528092919081815260200182805460018160011615610100020316600290048015611ff35780601f10611fc857610100808354040283529160200191611ff3565b820191906000526020600020905b815481529060010190602001808311611fd657829003601f168201915b5050505050905090565b600060cc60008373ffffffffffffffffffffffffffffffffffffffff1673ffffffffffffffffffffffffffffffffffffffff168152602001908152602001600020549050919050565b61204e6110b1565b73ffffffffffffffffffffffffffffffffffffffff168273ffffffffffffffffffffffffffffffffffffffff1614156120ef576040517f08c379a00000000000000000000000000000000000000000000000000000000081526004018080602001828103825260198152602001807f4552433732313a20617070726f766520746f2063616c6c65720000000000000081525060200191505060405180910390fd5b80609b60006120fc6110b1565b73ffffffffffffffffffffffffffffffffffffffff1673ffffffffffffffffffffffffffffffffffffffff16815260200190815260200160002060008473ffffffffffffffffffffffffffffffffffffffff1673ffffffffffffffffffffffffffffffffffffffff16815260200190815260200160002060006101000a81548160ff0219169083151502179055508173ffffffffffffffffffffffffffffffffffffffff166121a96110b1565b73ffffffffffffffffffffffffffffffffffffffff167f17307eab39ab6107e8899845ad3d59bd9653f200f220920489ca2b5937696c318360405180821515815260200191505060405180910390a35050565b6001151561012f60003373ffffffffffffffffffffffffffffffffffffffff1673ffffffffffffffffffffffffffffffffffffffff16815260200190815260200160002060009054906101000a900460ff1615151461225a57600080fd5b7f6a07a1119a4ada8b1214f4e1b966d4f48238147340e82bc581d4f6e3784d824f60405180806020018281038252600c8152602001807f70756c6c2073756363657373000000000000000000000000000000000000000081525060200191505060405180910390a16122cb336113b3565b565b6122de6122d86110b1565b83612bb7565b612333576040517f08c379a0000000000000000000000000000000000000000000000000000000008152600401808060200182810382526031815260200180614fc56031913960400191505060405180910390fd5b61233f848484846134ad565b50505050565b60606123508261292a565b6123a5576040517f08c379a000000000000000000000000000000000000000000000000000000000815260040180806020018281038252602f815260200180614f43602f913960400191505060405180910390fd5b6060609e60008481526020019081526020016000208054600181600116156101000203166002900480601f01602080910402602001604051908101604052809291908181526020018280546001816001161561010002031660029004801561244e5780601f106124235761010080835404028352916020019161244e565b820191906000526020600020905b81548152906001019060200180831161243157829003601f168201915b505050505090506000609f805460018160011615610100020316600290049050141561247d5780915050612629565b60008151111561255657609f8160405160200180838054600181600116156101000203166002900480156124e85780601f106124c65761010080835404028352918201916124e8565b820191906000526020600020905b8154815290600101906020018083116124d4575b505082805190602001908083835b6020831061251957805182526020820191506020810190506020830392506124f6565b6001836020036101000a03801982511681845116808217855250505050505090500192505050604051602081830303815290604052915050612629565b609f6125618461351f565b60405160200180838054600181600116156101000203166002900480156125bf5780601f1061259d5761010080835404028352918201916125bf565b820191906000526020600020905b8154815290600101906020018083116125ab575b505082805190602001908083835b602083106125f057805182526020820191506020810190506020830392506125cd565b6001836020036101000a038019825116818451168082178552505050505050905001925050506040516020818303038152906040529150505b919050565b600060cb60008373ffffffffffffffffffffffffffffffffffffffff1673ffffffffffffffffffffffffffffffffffffffff168152602001908152602001600020549050919050565b600060ca54905090565b6000609b60008473ffffffffffffffffffffffffffffffffffffffff1673ffffffffffffffffffffffffffffffffffffffff16815260200190815260200160002060008373ffffffffffffffffffffffffffffffffffffffff1673ffffffffffffffffffffffffffffffffffffffff16815260200190815260200160002060009054906101000a900460ff16905092915050565b61271d6110b1565b73ffffffffffffffffffffffffffffffffffffffff1660fb60009054906101000a900473ffffffffffffffffffffffffffffffffffffffff1673ffffffffffffffffffffffffffffffffffffffff16146127df576040517f08c379a00000000000000000000000000000000000000000000000000000000081526004018080602001828103825260208152602001807f4f776e61626c653a2063616c6c6572206973206e6f7420746865206f776e657281525060200191505060405180910390fd5b600073ffffffffffffffffffffffffffffffffffffffff168173ffffffffffffffffffffffffffffffffffffffff161415612865576040517f08c379a0000000000000000000000000000000000000000000000000000000008152600401808060200182810382526026815260200180614d2b6026913960400191505060405180910390fd5b8073ffffffffffffffffffffffffffffffffffffffff1660fb60009054906101000a900473ffffffffffffffffffffffffffffffffffffffff1673ffffffffffffffffffffffffffffffffffffffff167f8be0079c531659141344cd1fd0a4f28419497f9722a3daafe3b4186f6b6457e060405160405180910390a38060fb60006101000a81548173ffffffffffffffffffffffffffffffffffffffff021916908373ffffffffffffffffffffffffffffffffffffffff16021790555050565b606481565b600061294082609861366690919063ffffffff16565b9050919050565b81609a600083815260200190815260200160002060006101000a81548173ffffffffffffffffffffffffffffffffffffffff021916908373ffffffffffffffffffffffffffffffffffffffff160217905550808273ffffffffffffffffffffffffffffffffffffffff166129ba83611bac565b73ffffffffffffffffffffffffffffffffffffffff167f8c5be1e5ebec7d5bd14f71427d1e84f3dd0314c0f7b2291e5b200ac8c7c3b92560405160405180910390a45050565b6000612a0e82600001613680565b9050919050565b600080828401905083811015612a93576040517f08c379a000000000000000000000000000000000000000000000000000000000815260040180806020018281038252601b8152602001807f536166654d6174683a206164646974696f6e206f766572666c6f77000000000081525060200191505060405180910390fd5b8091505092915050565b600080831415612ab05760009050612b1d565b6000828402905082848281612ac157fe5b0414612b18576040517f08c379a0000000000000000000000000000000000000000000000000000000008152600401808060200182810382526021815260200180614e9f6021913960400191505060405180910390fd5b809150505b92915050565b6000612b6583836040518060400160405280601a81526020017f536166654d6174683a206469766973696f6e206279207a65726f000000000000815250613691565b905092915050565b6000612baf83836040518060400160405280601e81526020017f536166654d6174683a207375627472616374696f6e206f766572666c6f770000815250613757565b905092915050565b6000612bc28261292a565b612c17576040517f08c379a000000000000000000000000000000000000000000000000000000000815260040180806020018281038252602c815260200180614d9b602c913960400191505060405180910390fd5b6000612c2283611bac565b90508073ffffffffffffffffffffffffffffffffffffffff168473ffffffffffffffffffffffffffffffffffffffff161480612c9157508373ffffffffffffffffffffffffffffffffffffffff16612c79846111c3565b73ffffffffffffffffffffffffffffffffffffffff16145b80612ca25750612ca18185612681565b5b91505092915050565b8273ffffffffffffffffffffffffffffffffffffffff16612ccb82611bac565b73ffffffffffffffffffffffffffffffffffffffff1614612d37576040517f08c379a0000000000000000000000000000000000000000000000000000000008152600401808060200182810382526029815260200180614f1a6029913960400191505060405180910390fd5b600073ffffffffffffffffffffffffffffffffffffffff168273ffffffffffffffffffffffffffffffffffffffff161415612dbd576040517f08c379a0000000000000000000000000000000000000000000000000000000008152600401808060200182810382526024815260200180614d776024913960400191505060405180910390fd5b612dc8838383613817565b612dd3600082612947565b612e2481609760008673ffffffffffffffffffffffffffffffffffffffff1673ffffffffffffffffffffffffffffffffffffffff16815260200190815260200160002061381c90919063ffffffff16565b50612e7681609760008573ffffffffffffffffffffffffffffffffffffffff1673ffffffffffffffffffffffffffffffffffffffff16815260200190815260200160002061383690919063ffffffff16565b50612e8d818360986138509092919063ffffffff16565b50808273ffffffffffffffffffffffffffffffffffffffff168473ffffffffffffffffffffffffffffffffffffffff167fddf252ad1be2c89b69c2b068fc378daa952ba7f163c4a11628f55a4df523b3ef60405160405180910390a4505050565b6000612efd8360000183613885565b60001c905092915050565b6000803090506000813b9050600081149250505090565b600060019054906101000a900460ff1680612f3e5750612f3d612f08565b5b80612f54575060008054906101000a900460ff16155b612fa9576040517f08c379a000000000000000000000000000000000000000000000000000000000815260040180806020018281038252602e815260200180614eec602e913960400191505060405180910390fd5b60008060019054906101000a900460ff161590508015612ff9576001600060016101000a81548160ff02191690831515021790555060016000806101000a81548160ff0219169083151502179055505b613001613908565b613009613a06565b6130138383613b14565b80156130345760008060016101000a81548160ff0219169083151502179055505b505050565b600060019054906101000a900460ff16806130585750613057612f08565b5b8061306e575060008054906101000a900460ff16155b6130c3576040517f08c379a000000000000000000000000000000000000000000000000000000000815260040180806020018281038252602e815260200180614eec602e913960400191505060405180910390fd5b60008060019054906101000a900460ff161590508015613113576001600060016101000a81548160ff02191690831515021790555060016000806101000a81548160ff0219169083151502179055505b61311b613908565b6131258383613c72565b80156131465760008060016101000a81548160ff0219169083151502179055505b505050565b600060019054906101000a900460ff168061316a5750613169612f08565b5b80613180575060008054906101000a900460ff16155b6131d5576040517f08c379a000000000000000000000000000000000000000000000000000000000815260040180806020018281038252602e815260200180614eec602e913960400191505060405180910390fd5b60008060019054906101000a900460ff161590508015613225576001600060016101000a81548160ff02191690831515021790555060016000806101000a81548160ff0219169083151502179055505b61322d613908565b613235613e8d565b80156132565760008060016101000a81548160ff0219169083151502179055505b50565b600073ffffffffffffffffffffffffffffffffffffffff168273ffffffffffffffffffffffffffffffffffffffff1614156132fc576040517f08c379a00000000000000000000000000000000000000000000000000000000081526004018080602001828103825260208152602001807f4552433732313a206d696e7420746f20746865207a65726f206164647265737381525060200191505060405180910390fd5b6133058161292a565b15613378576040517f08c379a000000000000000000000000000000000000000000000000000000000815260040180806020018281038252601c8152602001807f4552433732313a20746f6b656e20616c7265616479206d696e7465640000000081525060200191505060405180910390fd5b61338460008383613817565b6133d581609760008573ffffffffffffffffffffffffffffffffffffffff1673ffffffffffffffffffffffffffffffffffffffff16815260200190815260200160002061383690919063ffffffff16565b506133ec818360986138509092919063ffffffff16565b50808273ffffffffffffffffffffffffffffffffffffffff16600073ffffffffffffffffffffffffffffffffffffffff167fddf252ad1be2c89b69c2b068fc378daa952ba7f163c4a11628f55a4df523b3ef60405160405180910390a45050565b6000806000806134608660000186614034565b915091508160001c8160001c9350935050509250929050565b600061348c846000018460001b846140cd565b60001c90509392505050565b60006134a6826000016141c3565b9050919050565b6134b8848484612cab565b6134c4848484846141d4565b613519576040517f08c379a0000000000000000000000000000000000000000000000000000000008152600401808060200182810382526032815260200180614ccd6032913960400191505060405180910390fd5b50505050565b60606000821415613567576040518060400160405280600181526020017f30000000000000000000000000000000000000000000000000000000000000008152509050613661565b600082905060005b60008214613591578080600101915050600a828161358957fe5b04915061356f565b60608167ffffffffffffffff811180156135aa57600080fd5b506040519080825280601f01601f1916602001820160405280156135dd5781602001600182028036833780820191505090505b50905060006001830390508593505b6000841461365957600a84816135fe57fe5b0660300160f81b8282806001900393508151811061361857fe5b60200101907effffffffffffffffffffffffffffffffffffffffffffffffffffffffffffff1916908160001a905350600a848161365157fe5b0493506135ec565b819450505050505b919050565b6000613678836000018360001b6144cb565b905092915050565b600081600001805490509050919050565b6000808311829061373d576040517f08c379a00000000000000000000000000000000000000000000000000000000081526004018080602001828103825283818151815260200191508051906020019080838360005b838110156137025780820151818401526020810190506136e7565b50505050905090810190601f16801561372f5780820380516001836020036101000a031916815260200191505b509250505060405180910390fd5b50600083858161374957fe5b049050809150509392505050565b6000838311158290613804576040517f08c379a00000000000000000000000000000000000000000000000000000000081526004018080602001828103825283818151815260200191508051906020019080838360005b838110156137c95780820151818401526020810190506137ae565b50505050905090810190601f1680156137f65780820380516001836020036101000a031916815260200191505b509250505060405180910390fd5b5060008385039050809150509392505050565b505050565b600061382e836000018360001b6144ee565b905092915050565b6000613848836000018360001b6145d6565b905092915050565b600061387c846000018460001b8473ffffffffffffffffffffffffffffffffffffffff1660001b614646565b90509392505050565b6000818360000180549050116138e6576040517f08c379a0000000000000000000000000000000000000000000000000000000008152600401808060200182810382526022815260200180614cab6022913960400191505060405180910390fd5b8260000182815481106138f557fe5b9060005260206000200154905092915050565b600060019054906101000a900460ff16806139275750613926612f08565b5b8061393d575060008054906101000a900460ff16155b613992576040517f08c379a000000000000000000000000000000000000000000000000000000000815260040180806020018281038252602e815260200180614eec602e913960400191505060405180910390fd5b60008060019054906101000a900460ff1615905080156139e2576001600060016101000a81548160ff02191690831515021790555060016000806101000a81548160ff0219169083151502179055505b8015613a035760008060016101000a81548160ff0219169083151502179055505b50565b600060019054906101000a900460ff1680613a255750613a24612f08565b5b80613a3b575060008054906101000a900460ff16155b613a90576040517f08c379a000000000000000000000000000000000000000000000000000000000815260040180806020018281038252602e815260200180614eec602e913960400191505060405180910390fd5b60008060019054906101000a900460ff161590508015613ae0576001600060016101000a81548160ff02191690831515021790555060016000806101000a81548160ff0219169083151502179055505b613af06301ffc9a760e01b614722565b8015613b115760008060016101000a81548160ff0219169083151502179055505b50565b600060019054906101000a900460ff1680613b335750613b32612f08565b5b80613b49575060008054906101000a900460ff16155b613b9e576040517f08c379a000000000000000000000000000000000000000000000000000000000815260040180806020018281038252602e815260200180614eec602e913960400191505060405180910390fd5b60008060019054906101000a900460ff161590508015613bee576001600060016101000a81548160ff02191690831515021790555060016000806101000a81548160ff0219169083151502179055505b82609c9080519060200190613c04929190614bd2565b5081609d9080519060200190613c1b929190614bd2565b50613c2c6380ac58cd60e01b614722565b613c3c635b5e139f60e01b614722565b613c4c63780e9d6360e01b614722565b8015613c6d5760008060016101000a81548160ff0219169083151502179055505b505050565b600060019054906101000a900460ff1680613c915750613c90612f08565b5b80613ca7575060008054906101000a900460ff16155b613cfc576040517f08c379a000000000000000000000000000000000000000000000000000000000815260040180806020018281038252602e815260200180614eec602e913960400191505060405180910390fd5b60008060019054906101000a900460ff161590508015613d4c576001600060016101000a81548160ff02191690831515021790555060016000806101000a81548160ff0219169083151502179055505b8151835114613da6576040517f08c379a0000000000000000000000000000000000000000000000000000000008152600401808060200182810382526032815260200180614f726032913960400191505060405180910390fd5b6000835111613e1d576040517f08c379a000000000000000000000000000000000000000000000000000000000815260040180806020018281038252601a8152602001807f5061796d656e7453706c69747465723a206e6f2070617965657300000000000081525060200191505060405180910390fd5b60005b8351811015613e6657613e59848281518110613e3857fe5b6020026020010151848381518110613e4c57fe5b602002602001015161482b565b8080600101915050613e20565b508015613e885760008060016101000a81548160ff0219169083151502179055505b505050565b600060019054906101000a900460ff1680613eac5750613eab612f08565b5b80613ec2575060008054906101000a900460ff16155b613f17576040517f08c379a000000000000000000000000000000000000000000000000000000000815260040180806020018281038252602e815260200180614eec602e913960400191505060405180910390fd5b60008060019054906101000a900460ff161590508015613f67576001600060016101000a81548160ff02191690831515021790555060016000806101000a81548160ff0219169083151502179055505b6000613f716110b1565b90508060fb60006101000a81548173ffffffffffffffffffffffffffffffffffffffff021916908373ffffffffffffffffffffffffffffffffffffffff1602179055508073ffffffffffffffffffffffffffffffffffffffff16600073ffffffffffffffffffffffffffffffffffffffff167f8be0079c531659141344cd1fd0a4f28419497f9722a3daafe3b4186f6b6457e060405160405180910390a35080156140315760008060016101000a81548160ff0219169083151502179055505b50565b60008082846000018054905011614096576040517f08c379a0000000000000000000000000000000000000000000000000000000008152600401808060200182810382526022815260200180614e7d6022913960400191505060405180910390fd5b60008460000184815481106140a757fe5b906000526020600020906002020190508060000154816001015492509250509250929050565b60008084600101600085815260200190815260200160002054905060008114158390614194576040517f08c379a00000000000000000000000000000000000000000000000000000000081526004018080602001828103825283818151815260200191508051906020019080838360005b8381101561415957808201518184015260208101905061413e565b50505050905090810190601f1680156141865780820380516001836020036101000a031916815260200191505b509250505060405180910390fd5b508460000160018203815481106141a757fe5b9060005260206000209060020201600101549150509392505050565b600081600001805490509050919050565b60006141f58473ffffffffffffffffffffffffffffffffffffffff16614ada565b61420257600190506144c3565b600060608573ffffffffffffffffffffffffffffffffffffffff1663150b7a0260e01b61422d6110b1565b898888604051602401808573ffffffffffffffffffffffffffffffffffffffff1681526020018473ffffffffffffffffffffffffffffffffffffffff16815260200183815260200180602001828103825283818151815260200191508051906020019080838360005b838110156142b1578082015181840152602081019050614296565b50505050905090810190601f1680156142de5780820380516001836020036101000a031916815260200191505b5095505050505050604051602081830303815290604052907bffffffffffffffffffffffffffffffffffffffffffffffffffffffff19166020820180517bffffffffffffffffffffffffffffffffffffffffffffffffffffffff83818316178352505050506040518082805190602001908083835b602083106143765780518252602082019150602081019050602083039250614353565b6001836020036101000a0380198251168184511680821785525050505050509050019150506000604051808303816000865af19150503d80600081146143d8576040519150601f19603f3d011682016040523d82523d6000602084013e6143dd565b606091505b50915091508161444b576000815111156143fa5780518082602001fd5b6040517f08c379a0000000000000000000000000000000000000000000000000000000008152600401808060200182810382526032815260200180614ccd6032913960400191505060405180910390fd5b600081806020019051602081101561446257600080fd5b8101908080519060200190929190505050905063150b7a0260e01b7bffffffffffffffffffffffffffffffffffffffffffffffffffffffff1916817bffffffffffffffffffffffffffffffffffffffffffffffffffffffff19161493505050505b949350505050565b600080836001016000848152602001908152602001600020541415905092915050565b600080836001016000848152602001908152602001600020549050600081146145ca576000600182039050600060018660000180549050039050600086600001828154811061453957fe5b906000526020600020015490508087600001848154811061455657fe5b906000526020600020018190555060018301876001016000838152602001908152602001600020819055508660000180548061458e57fe5b600190038181906000526020600020016000905590558660010160008781526020019081526020016000206000905560019450505050506145d0565b60009150505b92915050565b60006145e28383614b25565b61463b578260000182908060018154018082558091505060019003906000526020600020016000909190919091505582600001805490508360010160008481526020019081526020016000208190555060019050614640565b600090505b92915050565b60008084600101600085815260200190815260200160002054905060008114156146ed5784600001604051806040016040528086815260200185815250908060018154018082558091505060019003906000526020600020906002020160009091909190915060008201518160000155602082015181600101555050846000018054905085600101600086815260200190815260200160002081905550600191505061471b565b8285600001600183038154811061470057fe5b90600052602060002090600202016001018190555060009150505b9392505050565b63ffffffff60e01b817bffffffffffffffffffffffffffffffffffffffffffffffffffffffff191614156147be576040517f08c379a000000000000000000000000000000000000000000000000000000000815260040180806020018281038252601c8152602001807f4552433136353a20696e76616c696420696e746572666163652069640000000081525060200191505060405180910390fd5b600160656000837bffffffffffffffffffffffffffffffffffffffffffffffffffffffff19167bffffffffffffffffffffffffffffffffffffffffffffffffffffffff1916815260200190815260200160002060006101000a81548160ff02191690831515021790555050565b600073ffffffffffffffffffffffffffffffffffffffff168273ffffffffffffffffffffffffffffffffffffffff1614156148b1576040517f08c379a000000000000000000000000000000000000000000000000000000000815260040180806020018281038252602c815260200180614cff602c913960400191505060405180910390fd5b60008111614927576040517f08c379a000000000000000000000000000000000000000000000000000000000815260040180806020018281038252601d8152602001807f5061796d656e7453706c69747465723a2073686172657320617265203000000081525060200191505060405180910390fd5b600060cb60008473ffffffffffffffffffffffffffffffffffffffff1673ffffffffffffffffffffffffffffffffffffffff16815260200190815260200160002054146149bf576040517f08c379a000000000000000000000000000000000000000000000000000000000815260040180806020018281038252602b815260200180614ff6602b913960400191505060405180910390fd5b60cd829080600181540180825580915050600190039060005260206000200160009091909190916101000a81548173ffffffffffffffffffffffffffffffffffffffff021916908373ffffffffffffffffffffffffffffffffffffffff1602179055508060cb60008473ffffffffffffffffffffffffffffffffffffffff1673ffffffffffffffffffffffffffffffffffffffff16815260200190815260200160002081905550614a7b8160c954612a1590919063ffffffff16565b60c9819055507f40c340f65e17194d14ddddb073d3c9f888e3cb52b5aae0c6c7706b4fbc905fac8282604051808373ffffffffffffffffffffffffffffffffffffffff1681526020018281526020019250505060405180910390a15050565b60008060007fc5d2460186f7233c927e7db2dcc703c0e500b653ca82273b7bfad8045d85a47060001b9050833f9150808214158015614b1c57506000801b8214155b92505050919050565b600080836001016000848152602001908152602001600020541415905092915050565b828054828255906000526020600020908101928215614bc1579160200282015b82811115614bc05782518260006101000a81548173ffffffffffffffffffffffffffffffffffffffff021916908373ffffffffffffffffffffffffffffffffffffffff16021790555091602001919060010190614b68565b5b509050614bce9190614c52565b5090565b828054600181600116156101000203166002900490600052602060002090601f016020900481019282601f10614c1357805160ff1916838001178555614c41565b82800160010185558215614c41579182015b82811115614c40578251825591602001919060010190614c25565b5b509050614c4e9190614c8d565b5090565b5b80821115614c8957600081816101000a81549073ffffffffffffffffffffffffffffffffffffffff021916905550600101614c53565b5090565b5b80821115614ca6576000816000905550600101614c8e565b509056fe456e756d657261626c655365743a20696e646578206f7574206f6620626f756e64734552433732313a207472616e7366657220746f206e6f6e20455243373231526563656976657220696d706c656d656e7465725061796d656e7453706c69747465723a206163636f756e7420697320746865207a65726f20616464726573734f776e61626c653a206e6577206f776e657220697320746865207a65726f20616464726573735061796d656e7453706c69747465723a206163636f756e7420686173206e6f207368617265734552433732313a207472616e7366657220746f20746865207a65726f20616464726573734552433732313a206f70657261746f7220717565727920666f72206e6f6e6578697374656e7420746f6b656e5061796d656e7453706c69747465723a206163636f756e74206973206e6f7420647565207061796d656e744552433732313a20617070726f76652063616c6c6572206973206e6f74206f776e6572206e6f7220617070726f76656420666f7220616c6c4552433732313a2062616c616e636520717565727920666f7220746865207a65726f20616464726573734552433732313a206f776e657220717565727920666f72206e6f6e6578697374656e7420746f6b656e456e756d657261626c654d61703a20696e646578206f7574206f6620626f756e6473536166654d6174683a206d756c7469706c69636174696f6e206f766572666c6f774552433732313a20617070726f76656420717565727920666f72206e6f6e6578697374656e7420746f6b656e436f6e747261637420696e7374616e63652068617320616c7265616479206265656e20696e697469616c697a65644552433732313a207472616e73666572206f6620746f6b656e2074686174206973206e6f74206f776e4552433732314d657461646174613a2055524920717565727920666f72206e6f6e6578697374656e7420746f6b656e5061796d656e7453706c69747465723a2070617965657320616e6420736861726573206c656e677468206d69736d617463684552433732313a20617070726f76616c20746f2063757272656e74206f776e65724552433732313a207472616e736665722063616c6c6572206973206e6f74206f776e6572206e6f7220617070726f7665645061796d656e7453706c69747465723a206163636f756e7420616c72656164792068617320736861726573a2646970667358221220a0b0b90a8cd7e41d2e5153e4d06b40d8ae52d7b001c07a3146ea6ddc7d9c819764736f6c634300060c0033",
  "compiler": {
    "name": "solc",
    "version": "0.6.12+commit.27d51765.Emscripten.clang",
    "optimizer": {
      "enabled": false,
      "runs": 200
    },
    "evmVersion": "petersburg"
  }
}