{
  "fileName": "examples.sol",
  "contractName": "TokenExchange",
  "source": "// SPDX-License-Identifier: MIT\npragma solidity ^0.6.2;\n\nimport \"@openzeppelin/contracts-ethereum-package/contracts/Initializable.sol\";\nimport \"@openzeppelin/contracts-ethereum-package/contracts/token/ERC721/ERC721.sol\";\nimport \"@openzeppelin/contracts-ethereum-package/contracts/payment/PaymentSplitter.sol\";\nimport \"@openzeppelin/contracts-ethereum-package/contracts/access/Ownable.sol\";\n\ncontract TokenExchange is Initializable, ERC721UpgradeSafe, PaymentSplitterUpgradeSafe, OwnableUpgradeSafe{\n\n        //payees_ = [\"0x90F8bf6A479f320ead074411a4B0e7944Ea8c9C1\",\"0xFFcf8FDEE72ac11b5c542428B35EEF5769C409f0\"]\n        //shares_ = [50, 50]\n        //almaceno en un array privado las dos direcciones de metamask.\n        address[] private splitAddresses;\n        uint public constant PRICE = 0.04 ether;\n        uint public constant MAX_SUPPLY = 10000;\n        uint public constant MAX_MINT_AMOUNT = 100;\n        mapping (address => uint) private buyerToNerd;\n\n\n        function initialize(string memory _name, string memory _symbol, address[] memory _payees, uint256[] memory _shares) public payable initializer{\n                __ERC721_init(_name, _symbol);   \n                __PaymentSplitter_init(_payees, _shares);\n                __Ownable_init(); \n        }\n\n        // funcion para que los usuarios minteen desde la web\n        function mintNerd (uint _amount) public payable {\n                \n                require(_amount != 0 && _amount <= MAX_MINT_AMOUNT, \"Cantidad incorrecta\");\n                //require(msg.value >= PRICE.mul(_amount), \"Cantidad de ether incorrecto\");\n                \n                for (uint _id = totalSupply() + 1; _id <= _amount; _id ++){\n                        _mint(msg.sender, _id);\n                        buyerToNerd[msg.sender] = _id;\n                } \n        }\n\n}       \n",
  "sourcePath": "contracts/examples.sol",
  "abi": [
    {
      "anonymous": false,
      "inputs": [
        {
          "indexed": true,
          "internalType": "address",
          "name": "owner",
          "type": "address"
        },
        {
          "indexed": true,
          "internalType": "address",
          "name": "approved",
          "type": "address"
        },
        {
          "indexed": true,
          "internalType": "uint256",
          "name": "tokenId",
          "type": "uint256"
        }
      ],
      "name": "Approval",
      "type": "event"
    },
    {
      "anonymous": false,
      "inputs": [
        {
          "indexed": true,
          "internalType": "address",
          "name": "owner",
          "type": "address"
        },
        {
          "indexed": true,
          "internalType": "address",
          "name": "operator",
          "type": "address"
        },
        {
          "indexed": false,
          "internalType": "bool",
          "name": "approved",
          "type": "bool"
        }
      ],
      "name": "ApprovalForAll",
      "type": "event"
    },
    {
      "anonymous": false,
      "inputs": [
        {
          "indexed": true,
          "internalType": "address",
          "name": "previousOwner",
          "type": "address"
        },
        {
          "indexed": true,
          "internalType": "address",
          "name": "newOwner",
          "type": "address"
        }
      ],
      "name": "OwnershipTransferred",
      "type": "event"
    },
    {
      "anonymous": false,
      "inputs": [
        {
          "indexed": false,
          "internalType": "address",
          "name": "account",
          "type": "address"
        },
        {
          "indexed": false,
          "internalType": "uint256",
          "name": "shares",
          "type": "uint256"
        }
      ],
      "name": "PayeeAdded",
      "type": "event"
    },
    {
      "anonymous": false,
      "inputs": [
        {
          "indexed": false,
          "internalType": "address",
          "name": "from",
          "type": "address"
        },
        {
          "indexed": false,
          "internalType": "uint256",
          "name": "amount",
          "type": "uint256"
        }
      ],
      "name": "PaymentReceived",
      "type": "event"
    },
    {
      "anonymous": false,
      "inputs": [
        {
          "indexed": false,
          "internalType": "address",
          "name": "to",
          "type": "address"
        },
        {
          "indexed": false,
          "internalType": "uint256",
          "name": "amount",
          "type": "uint256"
        }
      ],
      "name": "PaymentReleased",
      "type": "event"
    },
    {
      "anonymous": false,
      "inputs": [
        {
          "indexed": true,
          "internalType": "address",
          "name": "from",
          "type": "address"
        },
        {
          "indexed": true,
          "internalType": "address",
          "name": "to",
          "type": "address"
        },
        {
          "indexed": true,
          "internalType": "uint256",
          "name": "tokenId",
          "type": "uint256"
        }
      ],
      "name": "Transfer",
      "type": "event"
    },
    {
      "inputs": [],
      "name": "MAX_MINT_AMOUNT",
      "outputs": [
        {
          "internalType": "uint256",
          "name": "",
          "type": "uint256"
        }
      ],
      "stateMutability": "view",
      "type": "function"
    },
    {
      "inputs": [],
      "name": "MAX_SUPPLY",
      "outputs": [
        {
          "internalType": "uint256",
          "name": "",
          "type": "uint256"
        }
      ],
      "stateMutability": "view",
      "type": "function"
    },
    {
      "inputs": [],
      "name": "PRICE",
      "outputs": [
        {
          "internalType": "uint256",
          "name": "",
          "type": "uint256"
        }
      ],
      "stateMutability": "view",
      "type": "function"
    },
    {
      "inputs": [
        {
          "internalType": "address",
          "name": "to",
          "type": "address"
        },
        {
          "internalType": "uint256",
          "name": "tokenId",
          "type": "uint256"
        }
      ],
      "name": "approve",
      "outputs": [],
      "stateMutability": "nonpayable",
      "type": "function"
    },
    {
      "inputs": [
        {
          "internalType": "address",
          "name": "owner",
          "type": "address"
        }
      ],
      "name": "balanceOf",
      "outputs": [
        {
          "internalType": "uint256",
          "name": "",
          "type": "uint256"
        }
      ],
      "stateMutability": "view",
      "type": "function"
    },
    {
      "inputs": [],
      "name": "baseURI",
      "outputs": [
        {
          "internalType": "string",
          "name": "",
          "type": "string"
        }
      ],
      "stateMutability": "view",
      "type": "function"
    },
    {
      "inputs": [
        {
          "internalType": "uint256",
          "name": "tokenId",
          "type": "uint256"
        }
      ],
      "name": "getApproved",
      "outputs": [
        {
          "internalType": "address",
          "name": "",
          "type": "address"
        }
      ],
      "stateMutability": "view",
      "type": "function"
    },
    {
      "inputs": [
        {
          "internalType": "string",
          "name": "_name",
          "type": "string"
        },
        {
          "internalType": "string",
          "name": "_symbol",
          "type": "string"
        },
        {
          "internalType": "address[]",
          "name": "_payees",
          "type": "address[]"
        },
        {
          "internalType": "uint256[]",
          "name": "_shares",
          "type": "uint256[]"
        }
      ],
      "name": "initialize",
      "outputs": [],
      "stateMutability": "payable",
      "type": "function"
    },
    {
      "inputs": [
        {
          "internalType": "address",
          "name": "owner",
          "type": "address"
        },
        {
          "internalType": "address",
          "name": "operator",
          "type": "address"
        }
      ],
      "name": "isApprovedForAll",
      "outputs": [
        {
          "internalType": "bool",
          "name": "",
          "type": "bool"
        }
      ],
      "stateMutability": "view",
      "type": "function"
    },
    {
      "inputs": [
        {
          "internalType": "uint256",
          "name": "_amount",
          "type": "uint256"
        }
      ],
      "name": "mintNerd",
      "outputs": [],
      "stateMutability": "payable",
      "type": "function"
    },
    {
      "inputs": [],
      "name": "name",
      "outputs": [
        {
          "internalType": "string",
          "name": "",
          "type": "string"
        }
      ],
      "stateMutability": "view",
      "type": "function"
    },
    {
      "inputs": [],
      "name": "owner",
      "outputs": [
        {
          "internalType": "address",
          "name": "",
          "type": "address"
        }
      ],
      "stateMutability": "view",
      "type": "function"
    },
    {
      "inputs": [
        {
          "internalType": "uint256",
          "name": "tokenId",
          "type": "uint256"
        }
      ],
      "name": "ownerOf",
      "outputs": [
        {
          "internalType": "address",
          "name": "",
          "type": "address"
        }
      ],
      "stateMutability": "view",
      "type": "function"
    },
    {
      "inputs": [
        {
          "internalType": "uint256",
          "name": "index",
          "type": "uint256"
        }
      ],
      "name": "payee",
      "outputs": [
        {
          "internalType": "address",
          "name": "",
          "type": "address"
        }
      ],
      "stateMutability": "view",
      "type": "function"
    },
    {
      "inputs": [
        {
          "internalType": "address payable",
          "name": "account",
          "type": "address"
        }
      ],
      "name": "release",
      "outputs": [],
      "stateMutability": "nonpayable",
      "type": "function"
    },
    {
      "inputs": [
        {
          "internalType": "address",
          "name": "account",
          "type": "address"
        }
      ],
      "name": "released",
      "outputs": [
        {
          "internalType": "uint256",
          "name": "",
          "type": "uint256"
        }
      ],
      "stateMutability": "view",
      "type": "function"
    },
    {
      "inputs": [],
      "name": "renounceOwnership",
      "outputs": [],
      "stateMutability": "nonpayable",
      "type": "function"
    },
    {
      "inputs": [
        {
          "internalType": "address",
          "name": "from",
          "type": "address"
        },
        {
          "internalType": "address",
          "name": "to",
          "type": "address"
        },
        {
          "internalType": "uint256",
          "name": "tokenId",
          "type": "uint256"
        }
      ],
      "name": "safeTransferFrom",
      "outputs": [],
      "stateMutability": "nonpayable",
      "type": "function"
    },
    {
      "inputs": [
        {
          "internalType": "address",
          "name": "from",
          "type": "address"
        },
        {
          "internalType": "address",
          "name": "to",
          "type": "address"
        },
        {
          "internalType": "uint256",
          "name": "tokenId",
          "type": "uint256"
        },
        {
          "internalType": "bytes",
          "name": "_data",
          "type": "bytes"
        }
      ],
      "name": "safeTransferFrom",
      "outputs": [],
      "stateMutability": "nonpayable",
      "type": "function"
    },
    {
      "inputs": [
        {
          "internalType": "address",
          "name": "operator",
          "type": "address"
        },
        {
          "internalType": "bool",
          "name": "approved",
          "type": "bool"
        }
      ],
      "name": "setApprovalForAll",
      "outputs": [],
      "stateMutability": "nonpayable",
      "type": "function"
    },
    {
      "inputs": [
        {
          "internalType": "address",
          "name": "account",
          "type": "address"
        }
      ],
      "name": "shares",
      "outputs": [
        {
          "internalType": "uint256",
          "name": "",
          "type": "uint256"
        }
      ],
      "stateMutability": "view",
      "type": "function"
    },
    {
      "inputs": [
        {
          "internalType": "bytes4",
          "name": "interfaceId",
          "type": "bytes4"
        }
      ],
      "name": "supportsInterface",
      "outputs": [
        {
          "internalType": "bool",
          "name": "",
          "type": "bool"
        }
      ],
      "stateMutability": "view",
      "type": "function"
    },
    {
      "inputs": [],
      "name": "symbol",
      "outputs": [
        {
          "internalType": "string",
          "name": "",
          "type": "string"
        }
      ],
      "stateMutability": "view",
      "type": "function"
    },
    {
      "inputs": [
        {
          "internalType": "uint256",
          "name": "index",
          "type": "uint256"
        }
      ],
      "name": "tokenByIndex",
      "outputs": [
        {
          "internalType": "uint256",
          "name": "",
          "type": "uint256"
        }
      ],
      "stateMutability": "view",
      "type": "function"
    },
    {
      "inputs": [
        {
          "internalType": "address",
          "name": "owner",
          "type": "address"
        },
        {
          "internalType": "uint256",
          "name": "index",
          "type": "uint256"
        }
      ],
      "name": "tokenOfOwnerByIndex",
      "outputs": [
        {
          "internalType": "uint256",
          "name": "",
          "type": "uint256"
        }
      ],
      "stateMutability": "view",
      "type": "function"
    },
    {
      "inputs": [
        {
          "internalType": "uint256",
          "name": "tokenId",
          "type": "uint256"
        }
      ],
      "name": "tokenURI",
      "outputs": [
        {
          "internalType": "string",
          "name": "",
          "type": "string"
        }
      ],
      "stateMutability": "view",
      "type": "function"
    },
    {
      "inputs": [],
      "name": "totalReleased",
      "outputs": [
        {
          "internalType": "uint256",
          "name": "",
          "type": "uint256"
        }
      ],
      "stateMutability": "view",
      "type": "function"
    },
    {
      "inputs": [],
      "name": "totalShares",
      "outputs": [
        {
          "internalType": "uint256",
          "name": "",
          "type": "uint256"
        }
      ],
      "stateMutability": "view",
      "type": "function"
    },
    {
      "inputs": [],
      "name": "totalSupply",
      "outputs": [
        {
          "internalType": "uint256",
          "name": "",
          "type": "uint256"
        }
      ],
      "stateMutability": "view",
      "type": "function"
    },
    {
      "inputs": [
        {
          "internalType": "address",
          "name": "from",
          "type": "address"
        },
        {
          "internalType": "address",
          "name": "to",
          "type": "address"
        },
        {
          "internalType": "uint256",
          "name": "tokenId",
          "type": "uint256"
        }
      ],
      "name": "transferFrom",
      "outputs": [],
      "stateMutability": "nonpayable",
      "type": "function"
    },
    {
      "inputs": [
        {
          "internalType": "address",
          "name": "newOwner",
          "type": "address"
        }
      ],
      "name": "transferOwnership",
      "outputs": [],
      "stateMutability": "nonpayable",
      "type": "function"
    },
    {
      "stateMutability": "payable",
      "type": "receive"
    }
  ],
  "bytecode": "0x608060405234801561001057600080fd5b50614ca0806100206000396000f3fe6080604052600436106101dc5760003560e01c80636c0360eb11610102578063a22cb46511610095578063e33b7de311610064578063e33b7de314610ef1578063e985e9c514610f1c578063f2fde38b14610fa3578063fa9b701814610ff45761023f565b8063a22cb46514610c69578063b88d4fde14610cc6578063c87b56dd14610dd8578063ce7c2ac214610e8c5761023f565b80638d859f3e116100d15780638d859f3e14610b085780638da5cb5b14610b3357806395d89b4114610b745780639852595c14610c045761023f565b80636c0360eb1461099757806370a0823114610a27578063715018a614610a8c5780638b83209b14610aa35761023f565b80632f745c591161017a578063445d978711610149578063445d97871461063b5780634a398667146108b55780634f6ccce7146108e35780636352211e146109325761023f565b80632f745c59146104fb57806332cb6b0c1461056a5780633a98ef391461059557806342842e0e146105c05761023f565b8063095ea7b3116101b6578063095ea7b3146103a957806318160ddd14610404578063191655871461042f57806323b872dd146104805761023f565b806301ffc9a71461024457806306fdde03146102b4578063081812fc146103445761023f565b3661023f577f6ef95f06320e7a25a04a175ca677b7052bdd97131872c2192525a629f51be77061020a61101f565b34604051808373ffffffffffffffffffffffffffffffffffffffff1681526020018281526020019250505060405180910390a1005b600080fd5b34801561025057600080fd5b5061029c6004803603602081101561026757600080fd5b8101908080357bffffffffffffffffffffffffffffffffffffffffffffffffffffffff19169060200190929190505050611027565b60405180821515815260200191505060405180910390f35b3480156102c057600080fd5b506102c961108f565b6040518080602001828103825283818151815260200191508051906020019080838360005b838110156103095780820151818401526020810190506102ee565b50505050905090810190601f1680156103365780820380516001836020036101000a031916815260200191505b509250505060405180910390f35b34801561035057600080fd5b5061037d6004803603602081101561036757600080fd5b8101908080359060200190929190505050611131565b604051808273ffffffffffffffffffffffffffffffffffffffff16815260200191505060405180910390f35b3480156103b557600080fd5b50610402600480360360408110156103cc57600080fd5b81019080803573ffffffffffffffffffffffffffffffffffffffff169060200190929190803590602001909291905050506111cc565b005b34801561041057600080fd5b50610419611310565b6040518082815260200191505060405180910390f35b34801561043b57600080fd5b5061047e6004803603602081101561045257600080fd5b81019080803573ffffffffffffffffffffffffffffffffffffffff169060200190929190505050611321565b005b34801561048c57600080fd5b506104f9600480360360608110156104a357600080fd5b81019080803573ffffffffffffffffffffffffffffffffffffffff169060200190929190803573ffffffffffffffffffffffffffffffffffffffff1690602001909291908035906020019092919050505061164f565b005b34801561050757600080fd5b506105546004803603604081101561051e57600080fd5b81019080803573ffffffffffffffffffffffffffffffffffffffff169060200190929190803590602001909291905050506116c5565b6040518082815260200191505060405180910390f35b34801561057657600080fd5b5061057f611720565b6040518082815260200191505060405180910390f35b3480156105a157600080fd5b506105aa611726565b6040518082815260200191505060405180910390f35b3480156105cc57600080fd5b50610639600480360360608110156105e357600080fd5b81019080803573ffffffffffffffffffffffffffffffffffffffff169060200190929190803573ffffffffffffffffffffffffffffffffffffffff16906020019092919080359060200190929190505050611730565b005b6108b36004803603608081101561065157600080fd5b810190808035906020019064010000000081111561066e57600080fd5b82018360208201111561068057600080fd5b803590602001918460018302840111640100000000831117156106a257600080fd5b91908080601f016020809104026020016040519081016040528093929190818152602001838380828437600081840152601f19601f8201169050808301925050505050505091929192908035906020019064010000000081111561070557600080fd5b82018360208201111561071757600080fd5b8035906020019184600183028401116401000000008311171561073957600080fd5b91908080601f016020809104026020016040519081016040528093929190818152602001838380828437600081840152601f19601f8201169050808301925050505050505091929192908035906020019064010000000081111561079c57600080fd5b8201836020820111156107ae57600080fd5b803590602001918460208302840111640100000000831117156107d057600080fd5b919080806020026020016040519081016040528093929190818152602001838360200280828437600081840152601f19601f8201169050808301925050505050505091929192908035906020019064010000000081111561083057600080fd5b82018360208201111561084257600080fd5b8035906020019184602083028401116401000000008311171561086457600080fd5b919080806020026020016040519081016040528093929190818152602001838360200280828437600081840152601f19601f820116905080830192505050505050509192919290505050611750565b005b6108e1600480360360208110156108cb57600080fd5b810190808035906020019092919050505061186e565b005b3480156108ef57600080fd5b5061091c6004803603602081101561090657600080fd5b8101908080359060200190929190505050611969565b6040518082815260200191505060405180910390f35b34801561093e57600080fd5b5061096b6004803603602081101561095557600080fd5b810190808035906020019092919050505061198c565b604051808273ffffffffffffffffffffffffffffffffffffffff16815260200191505060405180910390f35b3480156109a357600080fd5b506109ac6119c3565b6040518080602001828103825283818151815260200191508051906020019080838360005b838110156109ec5780820151818401526020810190506109d1565b50505050905090810190601f168015610a195780820380516001836020036101000a031916815260200191505b509250505060405180910390f35b348015610a3357600080fd5b50610a7660048036036020811015610a4a57600080fd5b81019080803573ffffffffffffffffffffffffffffffffffffffff169060200190929190505050611a65565b6040518082815260200191505060405180910390f35b348015610a9857600080fd5b50610aa1611b3a565b005b348015610aaf57600080fd5b50610adc60048036036020811015610ac657600080fd5b8101908080359060200190929190505050611cc5565b604051808273ffffffffffffffffffffffffffffffffffffffff16815260200191505060405180910390f35b348015610b1457600080fd5b50610b1d611d06565b6040518082815260200191505060405180910390f35b348015610b3f57600080fd5b50610b48611d11565b604051808273ffffffffffffffffffffffffffffffffffffffff16815260200191505060405180910390f35b348015610b8057600080fd5b50610b89611d3b565b6040518080602001828103825283818151815260200191508051906020019080838360005b83811015610bc9578082015181840152602081019050610bae565b50505050905090810190601f168015610bf65780820380516001836020036101000a031916815260200191505b509250505060405180910390f35b348015610c1057600080fd5b50610c5360048036036020811015610c2757600080fd5b81019080803573ffffffffffffffffffffffffffffffffffffffff169060200190929190505050611ddd565b6040518082815260200191505060405180910390f35b348015610c7557600080fd5b50610cc460048036036040811015610c8c57600080fd5b81019080803573ffffffffffffffffffffffffffffffffffffffff169060200190929190803515159060200190929190505050611e26565b005b348015610cd257600080fd5b50610dd660048036036080811015610ce957600080fd5b81019080803573ffffffffffffffffffffffffffffffffffffffff169060200190929190803573ffffffffffffffffffffffffffffffffffffffff1690602001909291908035906020019092919080359060200190640100000000811115610d5057600080fd5b820183602082011115610d6257600080fd5b80359060200191846001830284011164010000000083111715610d8457600080fd5b91908080601f016020809104026020016040519081016040528093929190818152602001838380828437600081840152601f19601f820116905080830192505050505050509192919290505050611fdc565b005b348015610de457600080fd5b50610e1160048036036020811015610dfb57600080fd5b8101908080359060200190929190505050612054565b6040518080602001828103825283818151815260200191508051906020019080838360005b83811015610e51578082015181840152602081019050610e36565b50505050905090810190601f168015610e7e5780820380516001836020036101000a031916815260200191505b509250505060405180910390f35b348015610e9857600080fd5b50610edb60048036036020811015610eaf57600080fd5b81019080803573ffffffffffffffffffffffffffffffffffffffff16906020019092919050505061233d565b6040518082815260200191505060405180910390f35b348015610efd57600080fd5b50610f06612386565b6040518082815260200191505060405180910390f35b348015610f2857600080fd5b50610f8b60048036036040811015610f3f57600080fd5b81019080803573ffffffffffffffffffffffffffffffffffffffff169060200190929190803573ffffffffffffffffffffffffffffffffffffffff169060200190929190505050612390565b60405180821515815260200191505060405180910390f35b348015610faf57600080fd5b50610ff260048036036020811015610fc657600080fd5b81019080803573ffffffffffffffffffffffffffffffffffffffff169060200190929190505050612424565b005b34801561100057600080fd5b50611009612634565b6040518082815260200191505060405180910390f35b600033905090565b600060656000837bffffffffffffffffffffffffffffffffffffffffffffffffffffffff19167bffffffffffffffffffffffffffffffffffffffffffffffffffffffff1916815260200190815260200160002060009054906101000a900460ff169050919050565b6060609c8054600181600116156101000203166002900480601f0160208091040260200160405190810160405280929190818152602001828054600181600116156101000203166002900480156111275780601f106110fc57610100808354040283529160200191611127565b820191906000526020600020905b81548152906001019060200180831161110a57829003601f168201915b5050505050905090565b600061113c82612639565b611191576040517f08c379a000000000000000000000000000000000000000000000000000000000815260040180806020018281038252602c815260200180614b0a602c913960400191505060405180910390fd5b609a600083815260200190815260200160002060009054906101000a900473ffffffffffffffffffffffffffffffffffffffff169050919050565b60006111d78261198c565b90508073ffffffffffffffffffffffffffffffffffffffff168373ffffffffffffffffffffffffffffffffffffffff16141561125e576040517f08c379a0000000000000000000000000000000000000000000000000000000008152600401808060200182810382526021815260200180614bee6021913960400191505060405180910390fd5b8073ffffffffffffffffffffffffffffffffffffffff1661127d61101f565b73ffffffffffffffffffffffffffffffffffffffff1614806112ac57506112ab816112a661101f565b612390565b5b611301576040517f08c379a0000000000000000000000000000000000000000000000000000000008152600401808060200182810382526038815260200180614a3c6038913960400191505060405180910390fd5b61130b8383612656565b505050565b600061131c609861270f565b905090565b600060cb60008373ffffffffffffffffffffffffffffffffffffffff1673ffffffffffffffffffffffffffffffffffffffff16815260200190815260200160002054116113b9576040517f08c379a000000000000000000000000000000000000000000000000000000000815260040180806020018281038252602681526020018061499b6026913960400191505060405180910390fd5b60006113e760ca543073ffffffffffffffffffffffffffffffffffffffff163161272490919063ffffffff16565b905060006114a260cc60008573ffffffffffffffffffffffffffffffffffffffff1673ffffffffffffffffffffffffffffffffffffffff1681526020019081526020016000205461149460c95461148660cb60008973ffffffffffffffffffffffffffffffffffffffff1673ffffffffffffffffffffffffffffffffffffffff16815260200190815260200160002054876127ac90919063ffffffff16565b61283290919063ffffffff16565b61287c90919063ffffffff16565b905060008114156114fe576040517f08c379a000000000000000000000000000000000000000000000000000000000815260040180806020018281038252602b815260200180614a11602b913960400191505060405180910390fd5b6115508160cc60008673ffffffffffffffffffffffffffffffffffffffff1673ffffffffffffffffffffffffffffffffffffffff1681526020019081526020016000205461272490919063ffffffff16565b60cc60008573ffffffffffffffffffffffffffffffffffffffff1673ffffffffffffffffffffffffffffffffffffffff168152602001908152602001600020819055506115a88160ca5461272490919063ffffffff16565b60ca819055508273ffffffffffffffffffffffffffffffffffffffff166108fc829081150290604051600060405180830381858888f193505050501580156115f4573d6000803e3d6000fd5b507fdf20fd1e76bc69d672e4814fafb2c449bba3a5369d8359adf9e05e6fde87b0568382604051808373ffffffffffffffffffffffffffffffffffffffff1681526020018281526020019250505060405180910390a1505050565b61166061165a61101f565b826128c6565b6116b5576040517f08c379a0000000000000000000000000000000000000000000000000000000008152600401808060200182810382526031815260200180614c0f6031913960400191505060405180910390fd5b6116c08383836129ba565b505050565b600061171882609760008673ffffffffffffffffffffffffffffffffffffffff1673ffffffffffffffffffffffffffffffffffffffff168152602001908152602001600020612bfd90919063ffffffff16565b905092915050565b61271081565b600060c954905090565b61174b83838360405180602001604052806000815250611fdc565b505050565b600060019054906101000a900460ff168061176f575061176e612c17565b5b80611785575060008054906101000a900460ff16155b6117da576040517f08c379a000000000000000000000000000000000000000000000000000000000815260040180806020018281038252602e815260200180614b36602e913960400191505060405180910390fd5b60008060019054906101000a900460ff16159050801561182a576001600060016101000a81548160ff02191690831515021790555060016000806101000a81548160ff0219169083151502179055505b6118348585612c2e565b61183e8383612d48565b611846612e5a565b80156118675760008060016101000a81548160ff0219169083151502179055505b5050505050565b60008114158015611880575060648111155b6118f2576040517f08c379a00000000000000000000000000000000000000000000000000000000081526004018080602001828103825260138152602001807f43616e746964616420696e636f7272656374610000000000000000000000000081525060200191505060405180910390fd5b600060016118fe611310565b0190505b818111611965576119133382612f68565b8061012e60003373ffffffffffffffffffffffffffffffffffffffff1673ffffffffffffffffffffffffffffffffffffffff168152602001908152602001600020819055508080600101915050611902565b5050565b60008061198083609861315c90919063ffffffff16565b50905080915050919050565b60006119bc82604051806060016040528060298152602001614a9e6029913960986131889092919063ffffffff16565b9050919050565b6060609f8054600181600116156101000203166002900480601f016020809104026020016040519081016040528092919081815260200182805460018160011615610100020316600290048015611a5b5780601f10611a3057610100808354040283529160200191611a5b565b820191906000526020600020905b815481529060010190602001808311611a3e57829003601f168201915b5050505050905090565b60008073ffffffffffffffffffffffffffffffffffffffff168273ffffffffffffffffffffffffffffffffffffffff161415611aec576040517f08c379a000000000000000000000000000000000000000000000000000000000815260040180806020018281038252602a815260200180614a74602a913960400191505060405180910390fd5b611b33609760008473ffffffffffffffffffffffffffffffffffffffff1673ffffffffffffffffffffffffffffffffffffffff1681526020019081526020016000206131a7565b9050919050565b611b4261101f565b73ffffffffffffffffffffffffffffffffffffffff1660fb60009054906101000a900473ffffffffffffffffffffffffffffffffffffffff1673ffffffffffffffffffffffffffffffffffffffff1614611c04576040517f08c379a00000000000000000000000000000000000000000000000000000000081526004018080602001828103825260208152602001807f4f776e61626c653a2063616c6c6572206973206e6f7420746865206f776e657281525060200191505060405180910390fd5b600073ffffffffffffffffffffffffffffffffffffffff1660fb60009054906101000a900473ffffffffffffffffffffffffffffffffffffffff1673ffffffffffffffffffffffffffffffffffffffff167f8be0079c531659141344cd1fd0a4f28419497f9722a3daafe3b4186f6b6457e060405160405180910390a3600060fb60006101000a81548173ffffffffffffffffffffffffffffffffffffffff021916908373ffffffffffffffffffffffffffffffffffffffff160217905550565b600060cd8281548110611cd457fe5b9060005260206000200160009054906101000a900473ffffffffffffffffffffffffffffffffffffffff169050919050565b668e1bc9bf04000081565b600060fb60009054906101000a900473ffffffffffffffffffffffffffffffffffffffff16905090565b6060609d8054600181600116156101000203166002900480601f016020809104026020016040519081016040528092919081815260200182805460018160011615610100020316600290048015611dd35780601f10611da857610100808354040283529160200191611dd3565b820191906000526020600020905b815481529060010190602001808311611db657829003601f168201915b5050505050905090565b600060cc60008373ffffffffffffffffffffffffffffffffffffffff1673ffffffffffffffffffffffffffffffffffffffff168152602001908152602001600020549050919050565b611e2e61101f565b73ffffffffffffffffffffffffffffffffffffffff168273ffffffffffffffffffffffffffffffffffffffff161415611ecf576040517f08c379a00000000000000000000000000000000000000000000000000000000081526004018080602001828103825260198152602001807f4552433732313a20617070726f766520746f2063616c6c65720000000000000081525060200191505060405180910390fd5b80609b6000611edc61101f565b73ffffffffffffffffffffffffffffffffffffffff1673ffffffffffffffffffffffffffffffffffffffff16815260200190815260200160002060008473ffffffffffffffffffffffffffffffffffffffff1673ffffffffffffffffffffffffffffffffffffffff16815260200190815260200160002060006101000a81548160ff0219169083151502179055508173ffffffffffffffffffffffffffffffffffffffff16611f8961101f565b73ffffffffffffffffffffffffffffffffffffffff167f17307eab39ab6107e8899845ad3d59bd9653f200f220920489ca2b5937696c318360405180821515815260200191505060405180910390a35050565b611fed611fe761101f565b836128c6565b612042576040517f08c379a0000000000000000000000000000000000000000000000000000000008152600401808060200182810382526031815260200180614c0f6031913960400191505060405180910390fd5b61204e848484846131bc565b50505050565b606061205f82612639565b6120b4576040517f08c379a000000000000000000000000000000000000000000000000000000000815260040180806020018281038252602f815260200180614b8d602f913960400191505060405180910390fd5b6060609e60008481526020019081526020016000208054600181600116156101000203166002900480601f01602080910402602001604051908101604052809291908181526020018280546001816001161561010002031660029004801561215d5780601f106121325761010080835404028352916020019161215d565b820191906000526020600020905b81548152906001019060200180831161214057829003601f168201915b505050505090506000609f805460018160011615610100020316600290049050141561218c5780915050612338565b60008151111561226557609f8160405160200180838054600181600116156101000203166002900480156121f75780601f106121d55761010080835404028352918201916121f7565b820191906000526020600020905b8154815290600101906020018083116121e3575b505082805190602001908083835b602083106122285780518252602082019150602081019050602083039250612205565b6001836020036101000a03801982511681845116808217855250505050505090500192505050604051602081830303815290604052915050612338565b609f6122708461322e565b60405160200180838054600181600116156101000203166002900480156122ce5780601f106122ac5761010080835404028352918201916122ce565b820191906000526020600020905b8154815290600101906020018083116122ba575b505082805190602001908083835b602083106122ff57805182526020820191506020810190506020830392506122dc565b6001836020036101000a038019825116818451168082178552505050505050905001925050506040516020818303038152906040529150505b919050565b600060cb60008373ffffffffffffffffffffffffffffffffffffffff1673ffffffffffffffffffffffffffffffffffffffff168152602001908152602001600020549050919050565b600060ca54905090565b6000609b60008473ffffffffffffffffffffffffffffffffffffffff1673ffffffffffffffffffffffffffffffffffffffff16815260200190815260200160002060008373ffffffffffffffffffffffffffffffffffffffff1673ffffffffffffffffffffffffffffffffffffffff16815260200190815260200160002060009054906101000a900460ff16905092915050565b61242c61101f565b73ffffffffffffffffffffffffffffffffffffffff1660fb60009054906101000a900473ffffffffffffffffffffffffffffffffffffffff1673ffffffffffffffffffffffffffffffffffffffff16146124ee576040517f08c379a00000000000000000000000000000000000000000000000000000000081526004018080602001828103825260208152602001807f4f776e61626c653a2063616c6c6572206973206e6f7420746865206f776e657281525060200191505060405180910390fd5b600073ffffffffffffffffffffffffffffffffffffffff168173ffffffffffffffffffffffffffffffffffffffff161415612574576040517f08c379a00000000000000000000000000000000000000000000000000000000081526004018080602001828103825260268152602001806149756026913960400191505060405180910390fd5b8073ffffffffffffffffffffffffffffffffffffffff1660fb60009054906101000a900473ffffffffffffffffffffffffffffffffffffffff1673ffffffffffffffffffffffffffffffffffffffff167f8be0079c531659141344cd1fd0a4f28419497f9722a3daafe3b4186f6b6457e060405160405180910390a38060fb60006101000a81548173ffffffffffffffffffffffffffffffffffffffff021916908373ffffffffffffffffffffffffffffffffffffffff16021790555050565b606481565b600061264f82609861337590919063ffffffff16565b9050919050565b81609a600083815260200190815260200160002060006101000a81548173ffffffffffffffffffffffffffffffffffffffff021916908373ffffffffffffffffffffffffffffffffffffffff160217905550808273ffffffffffffffffffffffffffffffffffffffff166126c98361198c565b73ffffffffffffffffffffffffffffffffffffffff167f8c5be1e5ebec7d5bd14f71427d1e84f3dd0314c0f7b2291e5b200ac8c7c3b92560405160405180910390a45050565b600061271d8260000161338f565b9050919050565b6000808284019050838110156127a2576040517f08c379a000000000000000000000000000000000000000000000000000000000815260040180806020018281038252601b8152602001807f536166654d6174683a206164646974696f6e206f766572666c6f77000000000081525060200191505060405180910390fd5b8091505092915050565b6000808314156127bf576000905061282c565b60008284029050828482816127d057fe5b0414612827576040517f08c379a0000000000000000000000000000000000000000000000000000000008152600401808060200182810382526021815260200180614ae96021913960400191505060405180910390fd5b809150505b92915050565b600061287483836040518060400160405280601a81526020017f536166654d6174683a206469766973696f6e206279207a65726f0000000000008152506133a0565b905092915050565b60006128be83836040518060400160405280601e81526020017f536166654d6174683a207375627472616374696f6e206f766572666c6f770000815250613466565b905092915050565b60006128d182612639565b612926576040517f08c379a000000000000000000000000000000000000000000000000000000000815260040180806020018281038252602c8152602001806149e5602c913960400191505060405180910390fd5b60006129318361198c565b90508073ffffffffffffffffffffffffffffffffffffffff168473ffffffffffffffffffffffffffffffffffffffff1614806129a057508373ffffffffffffffffffffffffffffffffffffffff1661298884611131565b73ffffffffffffffffffffffffffffffffffffffff16145b806129b157506129b08185612390565b5b91505092915050565b8273ffffffffffffffffffffffffffffffffffffffff166129da8261198c565b73ffffffffffffffffffffffffffffffffffffffff1614612a46576040517f08c379a0000000000000000000000000000000000000000000000000000000008152600401808060200182810382526029815260200180614b646029913960400191505060405180910390fd5b600073ffffffffffffffffffffffffffffffffffffffff168273ffffffffffffffffffffffffffffffffffffffff161415612acc576040517f08c379a00000000000000000000000000000000000000000000000000000000081526004018080602001828103825260248152602001806149c16024913960400191505060405180910390fd5b612ad7838383613526565b612ae2600082612656565b612b3381609760008673ffffffffffffffffffffffffffffffffffffffff1673ffffffffffffffffffffffffffffffffffffffff16815260200190815260200160002061352b90919063ffffffff16565b50612b8581609760008573ffffffffffffffffffffffffffffffffffffffff1673ffffffffffffffffffffffffffffffffffffffff16815260200190815260200160002061354590919063ffffffff16565b50612b9c8183609861355f9092919063ffffffff16565b50808273ffffffffffffffffffffffffffffffffffffffff168473ffffffffffffffffffffffffffffffffffffffff167fddf252ad1be2c89b69c2b068fc378daa952ba7f163c4a11628f55a4df523b3ef60405160405180910390a4505050565b6000612c0c8360000183613594565b60001c905092915050565b6000803090506000813b9050600081149250505090565b600060019054906101000a900460ff1680612c4d5750612c4c612c17565b5b80612c63575060008054906101000a900460ff16155b612cb8576040517f08c379a000000000000000000000000000000000000000000000000000000000815260040180806020018281038252602e815260200180614b36602e913960400191505060405180910390fd5b60008060019054906101000a900460ff161590508015612d08576001600060016101000a81548160ff02191690831515021790555060016000806101000a81548160ff0219169083151502179055505b612d10613617565b612d18613715565b612d228383613823565b8015612d435760008060016101000a81548160ff0219169083151502179055505b505050565b600060019054906101000a900460ff1680612d675750612d66612c17565b5b80612d7d575060008054906101000a900460ff16155b612dd2576040517f08c379a000000000000000000000000000000000000000000000000000000000815260040180806020018281038252602e815260200180614b36602e913960400191505060405180910390fd5b60008060019054906101000a900460ff161590508015612e22576001600060016101000a81548160ff02191690831515021790555060016000806101000a81548160ff0219169083151502179055505b612e2a613617565b612e348383613981565b8015612e555760008060016101000a81548160ff0219169083151502179055505b505050565b600060019054906101000a900460ff1680612e795750612e78612c17565b5b80612e8f575060008054906101000a900460ff16155b612ee4576040517f08c379a000000000000000000000000000000000000000000000000000000000815260040180806020018281038252602e815260200180614b36602e913960400191505060405180910390fd5b60008060019054906101000a900460ff161590508015612f34576001600060016101000a81548160ff02191690831515021790555060016000806101000a81548160ff0219169083151502179055505b612f3c613617565b612f44613b9c565b8015612f655760008060016101000a81548160ff0219169083151502179055505b50565b600073ffffffffffffffffffffffffffffffffffffffff168273ffffffffffffffffffffffffffffffffffffffff16141561300b576040517f08c379a00000000000000000000000000000000000000000000000000000000081526004018080602001828103825260208152602001807f4552433732313a206d696e7420746f20746865207a65726f206164647265737381525060200191505060405180910390fd5b61301481612639565b15613087576040517f08c379a000000000000000000000000000000000000000000000000000000000815260040180806020018281038252601c8152602001807f4552433732313a20746f6b656e20616c7265616479206d696e7465640000000081525060200191505060405180910390fd5b61309360008383613526565b6130e481609760008573ffffffffffffffffffffffffffffffffffffffff1673ffffffffffffffffffffffffffffffffffffffff16815260200190815260200160002061354590919063ffffffff16565b506130fb8183609861355f9092919063ffffffff16565b50808273ffffffffffffffffffffffffffffffffffffffff16600073ffffffffffffffffffffffffffffffffffffffff167fddf252ad1be2c89b69c2b068fc378daa952ba7f163c4a11628f55a4df523b3ef60405160405180910390a45050565b60008060008061316f8660000186613d43565b915091508160001c8160001c9350935050509250929050565b600061319b846000018460001b84613ddc565b60001c90509392505050565b60006131b582600001613ed2565b9050919050565b6131c78484846129ba565b6131d384848484613ee3565b613228576040517f08c379a00000000000000000000000000000000000000000000000000000000081526004018080602001828103825260328152602001806149176032913960400191505060405180910390fd5b50505050565b60606000821415613276576040518060400160405280600181526020017f30000000000000000000000000000000000000000000000000000000000000008152509050613370565b600082905060005b600082146132a0578080600101915050600a828161329857fe5b04915061327e565b60608167ffffffffffffffff811180156132b957600080fd5b506040519080825280601f01601f1916602001820160405280156132ec5781602001600182028036833780820191505090505b50905060006001830390508593505b6000841461336857600a848161330d57fe5b0660300160f81b8282806001900393508151811061332757fe5b60200101907effffffffffffffffffffffffffffffffffffffffffffffffffffffffffffff1916908160001a905350600a848161336057fe5b0493506132fb565b819450505050505b919050565b6000613387836000018360001b6141da565b905092915050565b600081600001805490509050919050565b6000808311829061344c576040517f08c379a00000000000000000000000000000000000000000000000000000000081526004018080602001828103825283818151815260200191508051906020019080838360005b838110156134115780820151818401526020810190506133f6565b50505050905090810190601f16801561343e5780820380516001836020036101000a031916815260200191505b509250505060405180910390fd5b50600083858161345857fe5b049050809150509392505050565b6000838311158290613513576040517f08c379a00000000000000000000000000000000000000000000000000000000081526004018080602001828103825283818151815260200191508051906020019080838360005b838110156134d85780820151818401526020810190506134bd565b50505050905090810190601f1680156135055780820380516001836020036101000a031916815260200191505b509250505060405180910390fd5b5060008385039050809150509392505050565b505050565b600061353d836000018360001b6141fd565b905092915050565b6000613557836000018360001b6142e5565b905092915050565b600061358b846000018460001b8473ffffffffffffffffffffffffffffffffffffffff1660001b614355565b90509392505050565b6000818360000180549050116135f5576040517f08c379a00000000000000000000000000000000000000000000000000000000081526004018080602001828103825260228152602001806148f56022913960400191505060405180910390fd5b82600001828154811061360457fe5b9060005260206000200154905092915050565b600060019054906101000a900460ff16806136365750613635612c17565b5b8061364c575060008054906101000a900460ff16155b6136a1576040517f08c379a000000000000000000000000000000000000000000000000000000000815260040180806020018281038252602e815260200180614b36602e913960400191505060405180910390fd5b60008060019054906101000a900460ff1615905080156136f1576001600060016101000a81548160ff02191690831515021790555060016000806101000a81548160ff0219169083151502179055505b80156137125760008060016101000a81548160ff0219169083151502179055505b50565b600060019054906101000a900460ff16806137345750613733612c17565b5b8061374a575060008054906101000a900460ff16155b61379f576040517f08c379a000000000000000000000000000000000000000000000000000000000815260040180806020018281038252602e815260200180614b36602e913960400191505060405180910390fd5b60008060019054906101000a900460ff1615905080156137ef576001600060016101000a81548160ff02191690831515021790555060016000806101000a81548160ff0219169083151502179055505b6137ff6301ffc9a760e01b614431565b80156138205760008060016101000a81548160ff0219169083151502179055505b50565b600060019054906101000a900460ff16806138425750613841612c17565b5b80613858575060008054906101000a900460ff16155b6138ad576040517f08c379a000000000000000000000000000000000000000000000000000000000815260040180806020018281038252602e815260200180614b36602e913960400191505060405180910390fd5b60008060019054906101000a900460ff1615905080156138fd576001600060016101000a81548160ff02191690831515021790555060016000806101000a81548160ff0219169083151502179055505b82609c9080519060200190613913929190614857565b5081609d908051906020019061392a929190614857565b5061393b6380ac58cd60e01b614431565b61394b635b5e139f60e01b614431565b61395b63780e9d6360e01b614431565b801561397c5760008060016101000a81548160ff0219169083151502179055505b505050565b600060019054906101000a900460ff16806139a0575061399f612c17565b5b806139b6575060008054906101000a900460ff16155b613a0b576040517f08c379a000000000000000000000000000000000000000000000000000000000815260040180806020018281038252602e815260200180614b36602e913960400191505060405180910390fd5b60008060019054906101000a900460ff161590508015613a5b576001600060016101000a81548160ff02191690831515021790555060016000806101000a81548160ff0219169083151502179055505b8151835114613ab5576040517f08c379a0000000000000000000000000000000000000000000000000000000008152600401808060200182810382526032815260200180614bbc6032913960400191505060405180910390fd5b6000835111613b2c576040517f08c379a000000000000000000000000000000000000000000000000000000000815260040180806020018281038252601a8152602001807f5061796d656e7453706c69747465723a206e6f2070617965657300000000000081525060200191505060405180910390fd5b60005b8351811015613b7557613b68848281518110613b4757fe5b6020026020010151848381518110613b5b57fe5b602002602001015161453a565b8080600101915050613b2f565b508015613b975760008060016101000a81548160ff0219169083151502179055505b505050565b600060019054906101000a900460ff1680613bbb5750613bba612c17565b5b80613bd1575060008054906101000a900460ff16155b613c26576040517f08c379a000000000000000000000000000000000000000000000000000000000815260040180806020018281038252602e815260200180614b36602e913960400191505060405180910390fd5b60008060019054906101000a900460ff161590508015613c76576001600060016101000a81548160ff02191690831515021790555060016000806101000a81548160ff0219169083151502179055505b6000613c8061101f565b90508060fb60006101000a81548173ffffffffffffffffffffffffffffffffffffffff021916908373ffffffffffffffffffffffffffffffffffffffff1602179055508073ffffffffffffffffffffffffffffffffffffffff16600073ffffffffffffffffffffffffffffffffffffffff167f8be0079c531659141344cd1fd0a4f28419497f9722a3daafe3b4186f6b6457e060405160405180910390a3508015613d405760008060016101000a81548160ff0219169083151502179055505b50565b60008082846000018054905011613da5576040517f08c379a0000000000000000000000000000000000000000000000000000000008152600401808060200182810382526022815260200180614ac76022913960400191505060405180910390fd5b6000846000018481548110613db657fe5b906000526020600020906002020190508060000154816001015492509250509250929050565b60008084600101600085815260200190815260200160002054905060008114158390613ea3576040517f08c379a00000000000000000000000000000000000000000000000000000000081526004018080602001828103825283818151815260200191508051906020019080838360005b83811015613e68578082015181840152602081019050613e4d565b50505050905090810190601f168015613e955780820380516001836020036101000a031916815260200191505b509250505060405180910390fd5b50846000016001820381548110613eb657fe5b9060005260206000209060020201600101549150509392505050565b600081600001805490509050919050565b6000613f048473ffffffffffffffffffffffffffffffffffffffff166147e9565b613f1157600190506141d2565b600060608573ffffffffffffffffffffffffffffffffffffffff1663150b7a0260e01b613f3c61101f565b898888604051602401808573ffffffffffffffffffffffffffffffffffffffff1681526020018473ffffffffffffffffffffffffffffffffffffffff16815260200183815260200180602001828103825283818151815260200191508051906020019080838360005b83811015613fc0578082015181840152602081019050613fa5565b50505050905090810190601f168015613fed5780820380516001836020036101000a031916815260200191505b5095505050505050604051602081830303815290604052907bffffffffffffffffffffffffffffffffffffffffffffffffffffffff19166020820180517bffffffffffffffffffffffffffffffffffffffffffffffffffffffff83818316178352505050506040518082805190602001908083835b602083106140855780518252602082019150602081019050602083039250614062565b6001836020036101000a0380198251168184511680821785525050505050509050019150506000604051808303816000865af19150503d80600081146140e7576040519150601f19603f3d011682016040523d82523d6000602084013e6140ec565b606091505b50915091508161415a576000815111156141095780518082602001fd5b6040517f08c379a00000000000000000000000000000000000000000000000000000000081526004018080602001828103825260328152602001806149176032913960400191505060405180910390fd5b600081806020019051602081101561417157600080fd5b8101908080519060200190929190505050905063150b7a0260e01b7bffffffffffffffffffffffffffffffffffffffffffffffffffffffff1916817bffffffffffffffffffffffffffffffffffffffffffffffffffffffff19161493505050505b949350505050565b600080836001016000848152602001908152602001600020541415905092915050565b600080836001016000848152602001908152602001600020549050600081146142d9576000600182039050600060018660000180549050039050600086600001828154811061424857fe5b906000526020600020015490508087600001848154811061426557fe5b906000526020600020018190555060018301876001016000838152602001908152602001600020819055508660000180548061429d57fe5b600190038181906000526020600020016000905590558660010160008781526020019081526020016000206000905560019450505050506142df565b60009150505b92915050565b60006142f18383614834565b61434a57826000018290806001815401808255809150506001900390600052602060002001600090919091909150558260000180549050836001016000848152602001908152602001600020819055506001905061434f565b600090505b92915050565b60008084600101600085815260200190815260200160002054905060008114156143fc5784600001604051806040016040528086815260200185815250908060018154018082558091505060019003906000526020600020906002020160009091909190915060008201518160000155602082015181600101555050846000018054905085600101600086815260200190815260200160002081905550600191505061442a565b8285600001600183038154811061440f57fe5b90600052602060002090600202016001018190555060009150505b9392505050565b63ffffffff60e01b817bffffffffffffffffffffffffffffffffffffffffffffffffffffffff191614156144cd576040517f08c379a000000000000000000000000000000000000000000000000000000000815260040180806020018281038252601c8152602001807f4552433136353a20696e76616c696420696e746572666163652069640000000081525060200191505060405180910390fd5b600160656000837bffffffffffffffffffffffffffffffffffffffffffffffffffffffff19167bffffffffffffffffffffffffffffffffffffffffffffffffffffffff1916815260200190815260200160002060006101000a81548160ff02191690831515021790555050565b600073ffffffffffffffffffffffffffffffffffffffff168273ffffffffffffffffffffffffffffffffffffffff1614156145c0576040517f08c379a000000000000000000000000000000000000000000000000000000000815260040180806020018281038252602c815260200180614949602c913960400191505060405180910390fd5b60008111614636576040517f08c379a000000000000000000000000000000000000000000000000000000000815260040180806020018281038252601d8152602001807f5061796d656e7453706c69747465723a2073686172657320617265203000000081525060200191505060405180910390fd5b600060cb60008473ffffffffffffffffffffffffffffffffffffffff1673ffffffffffffffffffffffffffffffffffffffff16815260200190815260200160002054146146ce576040517f08c379a000000000000000000000000000000000000000000000000000000000815260040180806020018281038252602b815260200180614c40602b913960400191505060405180910390fd5b60cd829080600181540180825580915050600190039060005260206000200160009091909190916101000a81548173ffffffffffffffffffffffffffffffffffffffff021916908373ffffffffffffffffffffffffffffffffffffffff1602179055508060cb60008473ffffffffffffffffffffffffffffffffffffffff1673ffffffffffffffffffffffffffffffffffffffff1681526020019081526020016000208190555061478a8160c95461272490919063ffffffff16565b60c9819055507f40c340f65e17194d14ddddb073d3c9f888e3cb52b5aae0c6c7706b4fbc905fac8282604051808373ffffffffffffffffffffffffffffffffffffffff1681526020018281526020019250505060405180910390a15050565b60008060007fc5d2460186f7233c927e7db2dcc703c0e500b653ca82273b7bfad8045d85a47060001b9050833f915080821415801561482b57506000801b8214155b92505050919050565b600080836001016000848152602001908152602001600020541415905092915050565b828054600181600116156101000203166002900490600052602060002090601f016020900481019282601f1061489857805160ff19168380011785556148c6565b828001600101855582156148c6579182015b828111156148c55782518255916020019190600101906148aa565b5b5090506148d391906148d7565b5090565b5b808211156148f05760008160009055506001016148d8565b509056fe456e756d657261626c655365743a20696e646578206f7574206f6620626f756e64734552433732313a207472616e7366657220746f206e6f6e20455243373231526563656976657220696d706c656d656e7465725061796d656e7453706c69747465723a206163636f756e7420697320746865207a65726f20616464726573734f776e61626c653a206e6577206f776e657220697320746865207a65726f20616464726573735061796d656e7453706c69747465723a206163636f756e7420686173206e6f207368617265734552433732313a207472616e7366657220746f20746865207a65726f20616464726573734552433732313a206f70657261746f7220717565727920666f72206e6f6e6578697374656e7420746f6b656e5061796d656e7453706c69747465723a206163636f756e74206973206e6f7420647565207061796d656e744552433732313a20617070726f76652063616c6c6572206973206e6f74206f776e6572206e6f7220617070726f76656420666f7220616c6c4552433732313a2062616c616e636520717565727920666f7220746865207a65726f20616464726573734552433732313a206f776e657220717565727920666f72206e6f6e6578697374656e7420746f6b656e456e756d657261626c654d61703a20696e646578206f7574206f6620626f756e6473536166654d6174683a206d756c7469706c69636174696f6e206f766572666c6f774552433732313a20617070726f76656420717565727920666f72206e6f6e6578697374656e7420746f6b656e436f6e747261637420696e7374616e63652068617320616c7265616479206265656e20696e697469616c697a65644552433732313a207472616e73666572206f6620746f6b656e2074686174206973206e6f74206f776e4552433732314d657461646174613a2055524920717565727920666f72206e6f6e6578697374656e7420746f6b656e5061796d656e7453706c69747465723a2070617965657320616e6420736861726573206c656e677468206d69736d617463684552433732313a20617070726f76616c20746f2063757272656e74206f776e65724552433732313a207472616e736665722063616c6c6572206973206e6f74206f776e6572206e6f7220617070726f7665645061796d656e7453706c69747465723a206163636f756e7420616c72656164792068617320736861726573a2646970667358221220e1f60d56bcb7128738bc01bd2cb9ee7ee257bc379217308c8d34a903ee5105b064736f6c634300060c0033",
  "compiler": {
    "name": "solc",
    "version": "0.6.12+commit.27d51765.Emscripten.clang",
    "optimizer": {
      "enabled": false,
      "runs": 200
    },
    "evmVersion": "petersburg"
  }
}